:020000040800F2
:10000000880A0020B9010008894400083538000832
:1000100099430008211E0008154A0008000000004E
:100020000000000000000000000000007F46000803
:10003000591E0008000000007D460008A94600087F
:10004000D3010008D3010008D3010008D301000840
:10005000D3010008D3010008D3010008D301000830
:10006000D3010008D3010008D3010008D301000820
:10007000D3010008D3010008D3010008D301000810
:10008000D3010008D3010008D3010008D301000800
:10009000D3010008D3010008D3010008D3010008F0
:1000A000D3010008D3010008D3010008D3010008E0
:1000B000D3010008D30100080D470008D301000850
:1000C000D3010008D3010008D3010008D3010008C0
:1000D000D3010008D3010008D3010008D3010008B0
:1000E000D3010008D3010008D301000800F002F892
:1000F00000F052F80AA090E8000C82448344AAF170
:100100000107DA4501D100F047F8AFF2090EBAE86D
:100110000F0013F0010F18BFFB1A43F0010318473B
:100120006065000080650000103A24BF78C878C17F
:10013000FAD8520724BF30C830C144BF04680C60ED
:10014000704700000023002400250026103A28BF35
:1001500078C1FBD8520728BF30C148BF0B60704739
:10016000662906F02C81642900F066800020704723
:100170001FB59DE8030001F081F800F02BFC04009E
:100180000020002104F0AAFFE06000F03FFD1FBD49
:1001900010B500F0A4FD10BD00F00CFE1146FFF7F5
:1001A000E7FF04F0A5FE00F0FBFF03B4FFF7F0FF4C
:1001B00003BC01F0D5F90000094880470948004711
:1001C000FEE7FEE7FEE7FEE7FEE7FEE7FEE7FEE707
:1001D000FEE7FEE704480549054A064B7047000064
:1001E0000B470008ED00000888040020880A002062
:1001F0008806002088060020B2F120030AD5C2F14B
:10020000200320FA02F001FA03F321FA02F140EA96
:100210000300704721FA03F04FF00001704700001F
:100220000FB4044910B503AA029800F0C1FB10BC3A
:100230005DF814FB7C0300202DE9F0410646002404
:1002400010687529314616A510D0AFF3008000283C
:1002500002DA404213A507E031688A0701D512A5EA
:1002600002E0490704D511A5012401E0AFF30080A5
:1002700000210A2206F1240709E0B0FBF2FCB0FBE2
:10028000F2F302FB1C00303078541846491C002859
:10029000F3D123462A463046BDE8F04100F020B9AC
:1002A000000000002D0000002B00000020000000D6
:1002B0002DE9F05F894604464FF0000ADFF874B17B
:1002C000FB44C0F820A02046E1688847002874D08D
:1002D000252806D0D4E901219047206A401C2062DD
:1002E000F1E700265F462046E1688847202805465A
:1002F00007DB312D05D2781910F8200C08B1064320
:10030000F1E7B00701D526F00406C4F81CA00027C9
:10031000C4F818A02A2D09D0284604F003FC38B3ED
:1003200004EB8708303DC8F8185019E059F8041B51
:10033000204604EB87029161E1688847012F05465A
:1003400018D1E069002820DA26F020061DE0D8F850
:10035000180000EB800005EB40003038C8F81800AA
:100360002046E1688847054604F0DCFB0028EED112
:10037000012F0AD02E2D08D12046E16888477F1C26
:100380000546022F46F02006C4DBA069002803DAE8
:10039000404246F00106A061F00701D026F01006A9
:1003A0006C2D0BD0682D09D04C2D39D06A2D35D04D
:1003B000742D35D07A2D33D016E038E0E1682F4621
:1003C00020468847B842054609D16C2F26D04FF405
:1003D0008060E168064320468847054604E06C2FAC
:1003E0001AD04FF4807006430DB3A5F141001928CF
:1003F00002D8203546F400664A4629462046266043
:100400004E46FFF7ADFE80B101280BD0F61D26F059
:10041000070000F1080956E74020E4E78020D8E70C
:100420000020D6E706F104094DE7284652E7206A86
:10043000BDE8F09F6462000010B5431C02E010F8B4
:10044000011B71B18107FAD14FF0013202C88C1A39
:100450008C4314EAC211F9D0C01A0A0603D0C01E98
:1004600010BDC01A10BD0A0401D0801E10BD0902C3
:10047000FCD0401E10BD4FF0000200B5134694465C
:100480009646203922BFA0E80C50A0E80C50B1F1EC
:100490002001BFF4F7AF090728BFA0E80C5048BF00
:1004A0000CC05DF804EB890028BF40F8042B08BF9E
:1004B000704748BF20F8022B11F0804F18BF00F89A
:1004C000012B704770477047704710B500F086FAEF
:1004D000006810BD10B5044600F080FA046010BD3D
:1004E0002DE9F0470D4699469246044600F124084E
:1004F0000168880604D5E06921F01001216000E060
:100500000120A84201DD471B00E00027A1697A19FC
:1005100002EB0900081AA0612078C00602D4204628
:10052000AFF30080002608E0D4E901211AF80600A4
:100530009047206A401C761C20624E45F4DB2078F0
:10054000C0060AD52046AFF3008006E0D4E90121B9
:1005500030209047206A401C2062381EA7F1010716
:10056000F4DC07E0D4E9012118F805009047206A7F
:10057000401C2062281EA5F10105F3DC2046AFF3E4
:1005800000802078000602D50220BDE8F087012017
:10059000FBE770472DE9FF4F0C461E464FF0FF3733
:1005A0008BB0D2E90001DDF860800A908A46C1F381
:1005B0000A5505B93D46002108464FF00000BAF142
:1005C000000F00F4400005DA00EB80004FF440011A
:1005D00001EA50004FEA9059B9F1010F00DDB94628
:1005E0000A9850EA4A000ED044F61050A5F2FF35A2
:1005F00045432F14B8F1000F1ED07542291E1EDD91
:10060000C9F100021CE0B8F1010F4FF0000001D069
:10061000302103E0F24305E02154401CB042FBDBF3
:1006200030460022002121540B99C1F80880C1E90D
:1006300000200FB0BDE8F08FBD1B6D1CDEE74A4601
:1006400000DA694206A800F06BFA06AB93E80700EF
:1006500003AB83E8070050460A9901F019F88DE8CA
:100660000700A0F500501F3800900398002D0ADD08
:1006700042F21F014A460844002303A9039068463A
:1006800001F082FA09E0A0F500504A461F38002325
:1006900003A90390684601F08CFA8DE80700000476
:1006A000000C03D04FF0FF30410800E01046B8F1D5
:1006B000000F03D00022009215461EE0751E05D4DF
:1006C00000F090F9303262556D1EF9D5B346012223
:1006D000084302D000227F1C04E02078302801D19A
:1006E00000227F1E002A099784D01DE0112D07DA11
:1006F00000F078F9303262556D1C50EA0102F5D1F4
:10070000084302D00098C8B10EE00021681E05E041
:10071000235C625C63542254401E491C8142F7DB17
:10072000AB46A81B401E0990002004F80B000B9854
:10073000099AC0F80880C0E9002B7AE711264FF02B
:10074000000857E72DE9F04F88460446D21D22F0F5
:10075000070191B0D1E90001CDE90A0104F05BF98C
:1007600002460B98C00F01D02D2007E020688107BA
:1007700001D52B2002E0202101EAC000032A0990C4
:1007800001D0072A05DB03464146204600F088F9E0
:100790000BE12078800601D5E06900E00620B8F181
:1007A000650F814606D0B8F1660F18D0B8F1670F13
:1007B00070D131E00020B9F1110F009001DB11235D
:1007C00001E009F101030AAA01A90CA8FFF7E2FE62
:1007D000DDE90C70002609F10105834647E00120A0
:1007E0004B4600904FF000470AAA01A90CA8FFF75A
:1007F000D1FEDDE90DB00C995D46002610B909F176
:1008000001000D18B9EB050003D4C0F1FF3609F162
:100810000105A5EB09002BE0B9F1010F01DA4FF05A
:1008200001090020B9F1110F0090484601DD1123A4
:1008300000E003460AAA01A90CA8FFF7ABFEDDE918
:100840000C704D4600268346207800070AD4AB453D
:1008500000DA5D4601A8012D04DD411911F8011CE3
:10086000302907D04F4502DA17F1040F04DA0120CE
:1008700082460FE06D1EEEE7002F02DCED1B3E44CA
:1008800003E0781CA84200DD7D1CB81B00F1010AC2
:100890004FF000472078000703D4AA4501DB4FF052
:1008A000FF3A0021B7F1004F0DF143088DF84310D6
:1008B00024D002202B23002F01DA7F422D230A218E
:1008C000021EA0F1010000DC5FB197FBF1FC97FB79
:1008D000F1F201FB1C7C17460CF1300C08F801CD3D
:1008E000EEE7A8F1010003702188090501D5452133
:1008F00000E06521A0F1010800F8011C09980FA98A
:10090000A1EB0807FF1D00B10120411901EBEA70BE
:10091000A1693844081A401EA0612078C00602D49C
:100920002046AFF30080099828B1D4E9012190470F
:10093000206A401C20622078C00622D52046AFF3F2
:1009400000801EE0002E04DBB34502DD01A8805DBF
:1009500000E03020D4E901219047206A401C206249
:10096000761CAAF101005FEA000A0AD100F032F811
:10097000C0680168405CD4E901219047206A401CAE
:100980002062281EA5F10105DCDC07E0D4E9012185
:1009900018F8010B9047206A401C2062381EA7F10E
:1009A0000107F3DC2046AFF30080032011B041E6DD
:1009B000074B70B50D467B4400F05FF804462846AF
:1009C00000F020F910B14FF0FF3070BD204670BD2F
:1009D0001B45000000487047440400200048704751
:1009E0002404002030B5B0F10A024FEA900E71F1F4
:1009F00000034EEA817EB0EB0E0061EB91014FEAFD
:100A0000101E4EEA017E10EB0E0041EB11114FEA71
:100A1000102E4EEA016E10EB0E0041EB11214FEA51
:100A2000104E4EEA014E10EB0E0041EB1141401802
:100A300041F100014FEAD00040EA41704FEAD10194
:100A400010EB80054FEA810444EA907444EB010402
:100A50006D1944EB0404521BA3414FF0000348BF3F
:100A60000A3200D530BD401C41F1000130BD00000C
:100A700001694A1C02610878704700B58FB0CDE962
:100A800001310021059105497944CDE90310114652
:100A90006846FFF70DFC0FB000BD0000E5FFFFFF4B
:100AA0002DE9F0411F46044603260168072A01F498
:100AB000006004DB08B116A505E016A503E008B147
:100AC00015A500E015A521F010002060A069C01E4A
:100AD000A0610FB1401EA0612046AFF300804FB16E
:100AE000D4E9012138469047206A401C2062C01C8E
:100AF000206206E0206AFAE7D4E9012115F8010B2B
:100B00009047761EF8D22046AFF30080BDE8F08112
:100B10004E414E006E616E00494E4600696E6600A1
:100B20002DE9F047814616468AB0354878440DC80D
:100B30008DE80D0032487844801C03AC0DC884E871
:100B40000D0041F69B300844372190FBF1F290FBF9
:100B5000F1F5A5F1800501FB12041B3C02D56442AE
:100B6000012000E00020DFF898A080460027FA442A
:100B7000AAF1BE0A0EE0E0070AD03246684607EB4B
:100B8000470101230AEB810101F013F88DE807000A
:100B900064107F1C002CEED1194F7F44AE3F19E04A
:100BA000E80715D007EB04100DF1180A90E80E00C5
:100BB0008AE80E00C068F04201D1981908903246C8
:100BC000012306A903A800F0F4FF03AB83E80700A4
:100BD0006D10641C002DE3D14FF0010332466946CD
:100BE000B8F1000F03A802D000F0CEFF01E000F042
:100BF000E0FFC9E90001C9F808200AB0BDE8F087A4
:100C00002C5B0000007B00F08000704710B542486C
:100C10005421FFF730FC41485421FFF72CFC404899
:100C20005421FFF728FC3F493B483C4A3F4B0860B2
:100C30003D490A603A491960531C0365481C106518
:100C4000012008653B48344A39A1784400F00CFA89
:100C500020B9384878440A3800F0ABFA37482F4AB0
:100C600035A1784400F000FA20B9344878440A38B5
:100C700000F09FFA32482A4A2FA1784400F0F4F994
:100C800020B92F4878440A3800F093FA40232248CC
:100C9000DC000021224600F0C4F920B12548784448
:100CA000543800F086FA1D4822464023002100F007
:100CB000B8F920B121487844543800F07AFA18483D
:100CC00022461023002100F0ACF9002806D01C4871
:100CD0007844BDE81040563800F06BBA10BD10489B
:100CE00070B5006D20F001040B4800F033FA0B489A
:100CF00000F030FA0A4800F02DFA09E0206D20F0EB
:100D00000105204600F026FA204600F078F82C462F
:100D1000002CF3D170BD0000280300207C030020CC
:100D2000D0030020CC000020D0000020D400002000
:100D300072000000265A000077000000125A0000DE
:100D4000FE5900000EB5CDE90001FFF775FB0290DA
:100D500069460120ABBE0EBD08B569460090022071
:100D6000ABBE08BD1FB58DE8070069460520ABBEC8
:100D700004B010BD1FB58DE80F0069460620ABBE5C
:100D8000F6E708B5694600900920ABBE08BD1CB562
:100D9000CDE9000169460A20ABBE1CBD704708B50D
:100DA000694600900C20ABBE08BD000000487047AB
:100DB000240400207546FFF7F9FFAE46050069469A
:100DC000534620F00700854618B020B5FFF702FA19
:100DD000BDE820404FF000064FF000074FF000083C
:100DE0004FF0000B21F00701AC46ACE8C009ACE8BD
:100DF000C009ACE8C009ACE8C0098D46704770B5C1
:100E00000446051F00F01EFA0068002C14BF446859
:100E100070BD002C18BFAC423CBF20466468F8D3BC
:100E200001680A18AA4218BF456003D12A6805461E
:100E30001144016028684119A1421CBF6C6070BD5B
:100E40006168696021680844286070BD2DE9F04739
:100E500005460C46C86820F4201040F48000C860A5
:100E6000800602D5084600F03AFBE06841F28201B4
:100E70004FF0FF390140022903D0204600F0D8FA94
:100E8000B5E000F42041B1F5004F0FD1C00306D505
:100E90006168E06A884200D80846606006E0206920
:100EA000E06260606069FFF77AFFA061A0680022DD
:100EB000EEB200280DDAE1688B050AD4C043A060C9
:100EC00041F490302260E0606068411C616006700F
:100ED000A5E0E0689046226040F40050E0602069A0
:100EE00068BB6069FFF74DFF012704F12405A0B13D
:100EF000A08910F4407F08D0E06900F0EEF920618D
:100F000018B1E06840F4006016E0E7612561E06830
:100F100020F4407040F480600EE0E06900F0DDF9FC
:100F200000282061F1D0E06840F4006010F4407FB8
:100F3000E06002D140F48070E06020696060E068A9
:100F400025696FF0010AC1051FD56168E06A884212
:100F500000D80846411B04D02246284600F072FA09
:100F6000F0BBE068010203D5E562C4E9015854E032
:100F7000691CE1626160E16940F48030491EC4E9A6
:100F8000021030462E70BDE8F087010202D500F451
:100F900080320AE06068411C61600670E0680A2ED9
:100FA00040F48030E06006D00022E16A606881424F
:100FB00003D90B4602E00122F7E70346A7895B1B32
:100FC0007F0503D4E7699F4200DDE2B1814200D88A
:100FD0000146E5620F1AC4E90158002B09DD00E063
:100FE00005E022461946284600F02CFA08B148468A
:100FF000C9E747B1A069E5626560C01BA061E06810
:1010000040F01000E060E068000208D56168A06967
:10101000E562491B08446560A0615046B3E730466D
:10102000B1E770B5C468A50713D0650211D4B2F555
:10103000807F09D0B2F5007F06D0B2F5806F08D16D
:10104000012300F1240106E05D1E6FF07F46B542EA
:1010500001D3012070BD0161C361416024F470615E
:101060001143C160002070BD2DE9F0410C460746D8
:101070001646104600F06EF82078611C61280AD0F0
:10108000722802D077283CD102E00125002405E037
:101090000225042402E0082448F2020511F8010B9D
:1010A0002B2806D0622809D011F8010C74280AD028
:1010B0000BE045F0030544F00204EFE745F00405BA
:1010C00044F00104EAE744F0100438462146FFF7F3
:1010D00039FE411C15D00021316171604FF400715F
:1010E000F560F1617061200704D5304602220021CD
:1010F00000F022F9306D40F0010030653046BDE867
:10110000F0810020FBE72DE9F0410D460646104C2A
:10111000206DC10704D0410804D020F00104F7E796
:1011200022460EE0542000F0D8F807000ED0206DC3
:1011300047F001010843542120653846FFF79BF929
:101140003A4629463046BDE8F0418DE70020D6E713
:10115000280300202DE9F04704464FF000094FF026
:10116000FF37C568D4E90486A80707D0204600F0F9
:1011700093F93046FFF7F0FD002802DA3846BDE863
:10118000F087280502D54046FFF739FE4C2120465E
:10119000FFF771F9206D20F0010020654846EEE769
:1011A00010B50446AFF300802046BDE81040FEF7BE
:1011B000FCBF10B500F0BAF9BDE8104000F0B0B9BE
:1011C0004FF0013C50F8042B51F8043B9A4221D1D6
:1011D000A2EB0C03934313EACC1317D150F8042B62
:1011E00051F8043B9A4215D1A2EB0C03934313EA46
:1011F000CC130BD150F8042B51F8043B9A4209D17F
:10120000A2EB0C03934313EACC13DBD04FF00000A6
:10121000704700BFD01A01BAB1FA81F101F018018C
:1012200022FA01F0CB40C1F12001DBB2C0B2C01AFA
:101230002CFA01F3D11A914311EAC311E6D1704798
:1012400070470000004870472C040020704770472A
:101250007047704738B504460A4600206946AFF328
:101260000080002808BF38BD02460099204600F0E3
:1012700084F9012038BD012000F0D3B9F8B5AFF3EF
:101280000080054600200C46102000BF0646A81925
:10129000A0420DD9324669460020AFF30080070016
:1012A00008BF00F0BEF90098A04218BF0546C41957
:1012B000FFF7C8FF05600746F01D20F0070046193C
:1012C000284600F053F9B44208BFF8BDA21B3146CE
:1012D0003868BDE8F84000F050B970B50646FFF731
:1012E000B1FF056806F10B0020F00704B4429CBF73
:1012F000002070BD2B466A68BAB11068A04210D3B6
:1013000004F1080188423CBF5068586007D3516817
:10131000101941601168091B016058601460101DAC
:1013200070BD13465268002AE7D121462846FFF7D0
:1013300091FF0028DED170BD2DE9F041044616462C
:101340000D464769007B80072ED03846FFF719FD10
:1013500050BB3EB3012E02D0022E25D104E0204620
:1013600000F025F905441DE03846FFF718FDE16857
:10137000002841F01001E16005DA204600F058F83D
:101380000120BDE8F081C9030BD56268E16A914292
:1013900000D81146A26911442269891A814200DDF0
:1013A00008460544002D01DA0220EAE7E16A606898
:1013B000E268814206D29103E06203D522F4003153
:1013C00041F01002A6690027AE4213DCE16A8142B7
:1013D00001D90B4600E0034603EB060C2369ACEB96
:1013E000030CAC4506DD814201D98C4600E0844601
:1013F0009C4505D1A760276042F02000A5620DE062
:10140000AD1BE669AE1B8142A66000D90846C01A32
:10141000281A20605819606022F020000349084013
:10142000E060002084F84870ABE70000BFCFD7FF32
:10143000C16821F4001141F08001C1600021816088
:10144000016070472DE9F047814614460E464FF083
:10145000FF383248D5685769054209D03846A16936
:10146000FFF795FC002811DB2C48C0430540E560E0
:101470002B46324649463846FFF774FCA16920F0F6
:101480000042B21A11440028A16103D02046FFF7A0
:10149000CFFF4046BDE8F08770B504460569C06AD5
:1014A0006168884200D80846E16821F42011E160B3
:1014B000C90312D5A84208D02246411B2846FFF78F
:1014C000C1FF10B14FF0FF3070BD0020E562C4E9EC
:1014D0000150E06820F48030E060002070BD10B55D
:1014E0000446C06820F02000E060A16AA06988423C
:1014F0000DD02046FFF7D0FFE06820F4405040F0C8
:101500001000E060A06AA0612069E062606044F2BF
:101510004001E0688843E06010BD00001000020058
:10152000002801D000F01CB87047000010B501463B
:1015300002A000F05DF8012010BD000053494752A1
:10154000545245443A2052656469726563743A2086
:1015500063616E2774206F70656E3A200000000092
:1015600001491820ABBEFEE7260002000021016001
:10157000C0E90110704710207047034640688C4650
:10158000002818BF88423CBF03464068F8D318685B
:101590001844884207D00CF1030020F00700001D1A
:1015A000411A521A0146081D0A60FFF728BC10B5FF
:1015B0000146C268900703D0900607D5886A0AE002
:1015C000FFF70CFA01210160881E10BD8B69486885
:1015D00018440B69C01A91F848301BB191F84910B2
:1015E000401A10BD1103FCD50028FADD401E10BDC5
:1015F00070B505460C460A2000E06D1C00F018F896
:1016000035B128780028F8D102E0641C00F010F809
:1016100014B120780028F8D1BDE870400A2000F00D
:1016200007B810B500F00CF8BDE81040FFF778BF20
:1016300008B569468DF800000320ABBE08BD000068
:1016400010B5012805D0002103A0FFF7D1FF01202C
:1016500010BD09A1F8E7000053494752544D454DCC
:101660003A204F7574206F662068656170206D6543
:101670006D6F7279000000003A2048656170206D3E
:10168000656D6F727920636F727275707465640036
:101690005FEA400C08BF91F0000F4FEA8C234FEA3D
:1016A000C12243EA51514FEA1C5018BF00F5F040E7
:1016B0004FEA300018BF41F000415FEA6C5C00F077
:1016C0002980BCF1FF3F08BF40F080407047130CF9
:1016D00006BF12044FF0100C4FF0000C130E04BFA5
:1016E00012020CF1080C130F04BF12010CF1040CD0
:1016F000930F04BF92000CF1020CD30F04BF5200F1
:101700000CF1010C11464FF00002A0F11F00A0EBFC
:101710000C00704711F0004F08BF704731F00041D6
:101720003FF4D5AF0B0C06BF09044FF0100C4FF07F
:10173000000C0B0E04BF09020CF1080C0B0F04BFC8
:1017400009010CF1040C8B0F04BF89000CF1020C91
:10175000CB0F04BF49000CF1010CCCF12003A0EB2E
:101760000C0022FA03F302FA0CF241EA030100F141
:101770000100704720F07F4C80EA030023F07F4790
:10178000ACEB070303F57C5300F0004003F1FF03CB
:101790002DE980494FEA154B09B44FEA144325EA75
:1017A0000B4E24EA03480FF2042606EB13274908E0
:1017B0003E785FEA320203FB0667C7F5000707FBC6
:1017C00006F64FEA54374FEAD64606F1020607FB03
:1017D000066CCCF1005C4FEA1C472CEA074C07FB77
:1017E00006F40CFB06F504EB15464FEA961634BFDB
:1017F00000204FF000404FEAD13706FB07FC4FEACC
:101800001C4C0CFB0BF7D21B03FB0CF761EB070125
:101810000CFB0EF7B0EB074072EB17420CFB08F71E
:1018200034BFA2EB0742B2EB074261EB17414FEA2C
:101830000C444FEA910706FB07FC4FEA1C4C0CFBDB
:101840000BF7B0EBC74072EB573203FB0CF734BF1A
:10185000A2EBC742B2EBC74261EB57310CFB0EF76C
:10186000B0EBC70072EB57720CFB08F734BFA2EB6A
:10187000C702B2EBC70261EB5771039F4FEA816168
:1018800041EA921104EBCC044FEAD1374FEA82626D
:1018900006FB07FC42EA90124FEA80604FEA1C4CBC
:1018A0000CFB0BF7D21B03FB0CF761EB07010CFBE6
:1018B0000EF7B0EB074072EB17420CFB08F734BF92
:1018C000A2EB0742B2EB074261EB17414FEA8C559E
:1018D0004FEA910704EB9C2406FB07FC4FEA1C4CE3
:1018E0000CFB0BF7B0EBC74072EB573203FB0CF766
:1018F00034BFA2EBC742B2EBC74261EB57310CFBDE
:101900000EF7B0EBC70072EB57720CFB08F734BF51
:10191000A2EBC702B2EBC70261EB577115EB4C2586
:101920004FEA816141EA92114FEA82624FEAD13770
:1019300042EA901206FB07FC44F100044FEA806083
:101940004FEA1C4C0CFB0BF7D21B03FB0CF761EBB3
:1019500007010CFB0EF7B0EB074072EB17420CFBD4
:1019600008F734BFA2EB0742B2EB074261EB174125
:1019700015EB1C154FEA813141EA92414FEA823260
:1019800042EA90424FEA80304FEA0C7644F100047C
:1019900048EA03434EEA0B484FF0000EB2EB080C46
:1019A00071EB030724BF624639464EEB0E0E4FF033
:1019B000000B0018524149414BEB0B0BB2EB080CEA
:1019C00071EB03077BF1000B24BF624639464EEBF7
:1019D0000E0E4FF0000B0018524149414BEB0B0B20
:1019E000B2EB080C71EB03077BF1000B24BF6246DE
:1019F00039464EEB0E0E51EA020718BF46F00106BB
:101A000016EB0E7655F1000254F1000103D5BDE846
:101A10008901BDE80088BDE88901BDE80048B61924
:101A2000524141EB0101A3F10103704780807F7EA9
:101A30007D7C7B7A79787776767574737271717044
:101A40006F6E6E6D6C6C6B6A6A69686867666665F6
:101A50006464636362616160605F5F5E5E5D5D5C84
:101A60005C5B5B5A5A5959585857575656555555F5
:101A70005454535352525251515050504F4F4F4E55
:101A80004E4D4D4D4C4C4C4B4B4B4A4A4A494949A3
:101A900048484847474747464646454545444444E5
:101AA000444343434342424242414141002B9C460E
:101AB00030D477002BD01CB54FEA370703B44FF072
:101AC00010004FF01001BAF1000F06D0BCF1000F6A
:101AD000DCBF40F0080040F008014FF000000FBCF0
:101AE000BDE810400BF1010BBBF1010F08BF5FEA2D
:101AF000170722BF12F1010211F101014FF000415D
:101B000043F1000300F0004043EA00007047F9D3BE
:101B10005708D0E746EA064613F1400F4FEA16464B
:101B20001FDD13F1200FDFBF16430A4600212033CB
:101B30005B42BED0C3F1200746EA064602FA07F729
:101B40004FEA164646EA0706C3F1200722FA03F2D7
:101B500001FA07F721FA03F14FF0000342EA070206
:101B6000A7E746EA020646EA06464FEA164646EA6E
:101B70000106BCBF46EA0646360C4FF000034FF0A4
:101B800000024FF0000194E72DE9804C9A469346FD
:101B900070B491E8380007C831EA400C48BF34EA15
:101BA000430C03D5FFF7E6FDFFF780FFF0BCBDE86F
:101BB000008C2DE9804C9A46934670B491E8380029
:101BC00007C810F0804F08BF13F0804F03D100F01A
:101BD00005F8FFF76BFFF0BCBDE8008C20F07F47F5
:101BE00080EA030023F07F4C07EB0C03A3F57C5342
:101BF00000F00040A3F1FE0392F0000F00F0B3806C
:101C000095F0000F00F077802DE901494FEA11406F
:101C10004FEA144621EA004800FB06FC24EA064786
:101C200008FB06F607FB08F800FB07F718EB064869
:101C30004CEB164C4FEA124B18EB07484FEA15468F
:101C40004CEB174022EA0B4E0BFB06FC25EA06473D
:101C50000EFB06F607FB0EFE0BFB07F71EEB064E10
:101C60004CEB164C4FF000061EEB074E4CEB174B9F
:101C700018EB0B0840F1000018EB0E0B58EB0008B6
:101C800040F100008F1A4FF000013CBFC943661BB2
:101C900014BFB5EB040C00213CBFC943F61B4FEA4F
:101CA00017444EEA8E0E27EA04454FEA1C4704FB10
:101CB00007622CEA074C05FB07F70CFB05F604FB53
:101CC0000CFC16EB074642EB174216EB0C4642EBB8
:101CD0001C421BEB060658EB0202414146EA9E06F7
:101CE00001D5BDE80189B619524141EB0101A3F1CB
:101CF0000103BDE801894FEA14454FEA114724EA80
:101D0000054621EA074C05FB07F406FB07F70CFB29
:101D100006F105FB0CFC11EB074144EB17444FEABD
:101D2000124711EB0C4144EB1C4422EA074C05FB23
:101D300007F206FB07F70CFB06F605FB0CFC16EB9F
:101D4000074642EB174216EB0C4642EB1C456A185D
:101D500054F1000148BF7047B619524141EB0101EF
:101D6000A3F10103704795F0000F37D04FEA1142FD
:101D70004FEA144721EA024624EA074C02FB07F126
:101D800006FB07F70CFB06F402FB0CFC14EB074404
:101D900041EB17414FEA154714EB0C4441EB1C4152
:101DA00025EA074C02FB07F506FB07F70CFB06F6D6
:101DB00002FB0CFC16EB074645EB174516EB0C46F1
:101DC00045EB1C42121951F1000148BF7047B6198A
:101DD000524141EB0101A3F1010370474FEA144561
:101DE0004FEA114724EA054621EA074C05FB07F1B3
:101DF00006FB07F70CFB06F24FF0000605FB0CFC98
:101E000012EB074241EB174112EB0C4251EB1C4124
:101E100048BF7047921841EB0101A3F101037047DD
:101E2000FEE7000070B54FF0FF320023094D0CE0D3
:101E3000C45C62400024D60702D085EA520200E06A
:101E40005208641C082CF6DB5B1C8B42F0D3D04399
:101E500070BD00002083B8ED70470146006800683F
:101E6000426A88888A80101A00B2B0F5004F02DA00
:101E700010F5004F00DC00B2C880704701600A68AE
:101E8000526A82800022C28008463C2101F056BA84
:101E900006490020C8610648016941F0040101615A
:101EA000016941F040010161704700000803002012
:101EB00000200240064A0021D16106490A6942F029
:101EC00002020A614861086940F0400008617047F9
:101ED0000803002000200240044B0022DA61044A7B
:101EE000136943F001031361018070470803002068
:101EF0000020024014480022C168CB06134904D5D3
:101F0000CA6942F00202CA611022C3685B0705D5A4
:101F1000CB6943F00103CB6142F00402C369DB07E4
:101F200007D0CB6943F00403CB61C16921F0010103
:101F3000C161A2F58071013901D0C2607047C169E9
:101F400021F00101C1617047002002400803002018
:101F500070B5054600F02EFA0646114C09E0681CE3
:101F600007D025B100F026FA801BA84201D9032032
:101F700070BDE068C007F2D1E068800601D520207E
:101F8000E060E068C00605D4E069C00702D1E068FF
:101F9000400703D5FFF7AEFF012070BD002070BDE4
:101FA000002002407FB50C4B14460D4606460FCB71
:101FB0008DE80F000C216846FFF734FF039981423A
:101FC00002D0002004B070BD0098306001982860F5
:101FD000029820600120F5E700FC0008F0B58BB006
:101FE00017460E46044600F0D7F800200A900690E7
:101FF000104D0120CDE908500AA906A800F02EF8DE
:1020000001AA0C2182E8D00001A8FFF70BFF01AE66
:102010000024049056F8242005EB840100230220BC
:1020200000F07AF8641C042CF4D300F06BF80BB0C9
:10203000F0BD000000FC000870B5044600F0BAF9DD
:102040000546601C02D004480078044400F0B2F950
:10205000401BA042FAD370BD200000202DE9F047BC
:10206000054626480F460126017E01290FD0012191
:10207000814601762868DFF888804CF250340228C7
:1020800008D0A2462046FFF763FFA8B131E0022046
:10209000BDE8F0872046FFF75BFF08BB0120FFF794
:1020A000F7FE2046FFF754FFD8F81010064621F03F
:1020B0000401C8F810101CE04FF0FF303860AC6825
:1020C00011E02046FFF7F6FE5046FFF741FFD8F833
:1020D0001010060021F00201C8F8101001D03C6079
:1020E00007E004F58064D5E9020100EB8120A042FD
:1020F000E7D8002189F818103046C9E70803002006
:10210000002002400348016941F080010161002084
:1021100070470000002002402DE9F05F07461C4890
:1021200088460024017E15461E46012909D001215A
:10213000814601764CF2503A5046FFF709FF18B13C
:1021400022E00220BDE8F09F012F02D0022F00D034
:102150000427D346DFF83CA0220128463146FEF78B
:102160004BF881B208EB4400FFF7B6FE5846FFF784
:10217000EFFEDAF8102022F00102CAF8102018B998
:10218000641CE4B2BC42E7D3002289F81820D9E7E6
:102190000803002000200240064900200A691206B8
:1021A00007D5054A4A60054A4A600969090600D50B
:1021B000012070470020024023016745AB89EFCD25
:1021C0002DE9F84FDFF8B8910024A9F1040B23465C
:1021D0000F2709F1040AABF1040EC9E00125A5405F
:1021E0002A40AA427DD1674ED1F804C0ACEB060864
:1021F000B44532D014DCBCF1030F3AD009DCBCF199
:10220000000F2AD0BCF1010F1CD0BCF1020F31D15C
:102210001DE0BCF1110F17D0BCF1120F2AD119E04B
:10222000B8F5881F19D006DCB8F5803F15D0B8F591
:10223000801F1FD111E0B8F5001F0ED0B8F5041FA4
:1022400018D10AE0CB6815E0CB681B1D12E0CB6803
:1022500008330FE0CB680C330CE08B682BB1012BFB
:102260004FF0080303D0456104E0042302E0056158
:1022700000E00023FF2A01D8064601E000F1040631
:102280004FEA840501D9A5F12005D6F8008007FAA8
:1022900005FC28EA0C0803FA05F548EA0508C6F823
:1022A00000804D68ED0062D5374DAE6946F00106FD
:1022B000AE61AD6924F0030605F001050095334DCC
:1022C00006EB050CDCF80850A607360F07FA06F8EF
:1022D00025EA0805DFF8B880404503D14FF0000833
:1022E00017E044E0DFF8AC80404502D14FF0010830
:1022F0000FE0DFF8A480404502D14FF0020808E06B
:10230000DFF89880404502D14FF0030801E04FF01C
:10231000040808FA06F848EA0508CCF808804D6871
:10232000D9F80060ED024D4601D5164300E0964312
:102330002E604D68DAF80060AD02554601D51643AF
:1023400000E096432E604D68DBF80060AD035D460B
:1023500001D5164300E096432E604D68DEF800601C
:10236000ED03754601D5164300E096432E60641CCC
:102370000D682A46E5407FF431AFBDE8F88F0000D4
:10238000080401400000111000100240000001404C
:1023900000080140000C0140001001400014014001
:1023A0008068084000D0012070470AB10161704781
:1023B0000904FBE701488068704700002000002006
:1023C00070B5040025D094F83D00002520B984F8AC
:1023D0003C50204600F07EFA242084F83D0020681E
:1023E000016821F0010101602068016841F40041A9
:1023F00001602068016821F40041016000F0D0FB19
:102400004D4A6168914201D84C4900E04C498842EC
:1024100001D2012070BD4B492368B0FBF1F15E6829
:1024200026F03F060E435E606368934206D94FF480
:10243000967359434FF47A73B1FBF3F12368491C47
:102440001E6A26F03F06314319626168914210D836
:102450004900401EB0FBF1F2521CC2F30B02042AE9
:1024600001D2042022E0B0FBF1F0401CC0F30B00CD
:102470001CE0A268F2B301EBC10303EB0116431E9B
:10248000B3FBF6F35B1C43F480431B0549D092B3C6
:1024900001EBC10202EB0111401EB0FBF1F0401C48
:1024A000C0F30B0040F4804040F400402168CA694A
:1024B0004CF6FF739A431043C861D4E907100143F7
:1024C0002068026822F0C00211430160D4E90301D0
:1024D00001432068826848F2FF339A4311438160C8
:1024E000D4E9050108432168CA6822F0FF021043BD
:1024F000C86001E00EE016E02068016841F00101CB
:1025000001602564202084F83D00256384F83E5056
:10251000002070BD01EB4106431EB3FBF6F35B1CCC
:10252000B3E70120C2E701EB4101401EB0FBF1F02F
:10253000401CC0F30B00B7E7A086010080841E009A
:1025400000093D0040420F002DE9FF4F83B00025F8
:10255000DDE910799A4693460446DDF848800095F7
:10256000FFF728FF064694F83D0020287CD1192368
:10257000012288492046009601F072FA0028F5D120
:1025800094F83C0001286FD0012084F83C002068BA
:102590000168C90703D1016841F0010101602068A9
:1025A000016821F400610160222084F83D00402090
:1025B00084F83E0025646762A4F82A90608D208527
:1025C0007548E062CDE9008653465A462046049994
:1025D00001F048F900287CD1208DDFF8C091202738
:1025E00068B1012814D00228206801681ED041F487
:1025F000806101602068416980690090BCE02068CA
:10260000416981690091016841F400710160B3E0A2
:102610002068016821F48061016072B62068416918
:1026200081690091016841F400710AE041F40061A0
:10263000016072B62068416981690091016821F4E6
:102640008061016062B697E0032865D801280CD04C
:10265000022843464FF000024946204600960BD020
:1026600001F0FEF9A8BB0CE091E03246414620465D
:1026700001F09CFA68BB72E001F0F2F948BB72B657
:1026800033E02068016821F48061016072B620683F
:102690000069616A0870606A401C6062208D401E9B
:1026A0002085608D401E60853D4846F2A811006877
:1026B000B0FBF1F0C0EBC00000EB80000090401ECA
:1026C000009007D020684069C04340070DD50098AE
:1026D000F5E727E044F8305F6773A573206940F0A1
:1026E0002000206162B625731CE02068016841F477
:1026F0000071016020680069616A0870606A401CAE
:102700006062218D491E2185618D491E618562B6F9
:1027100021680969017026E032464146204601F0F1
:1027200045FA18B1012007B0BDE8F08F20680069B4
:10273000616A0870606A401C6062208D401E81B230
:102740002185608D401E608520684269D243520712
:1027500012D4032903D1016821F48061016020684B
:102760000069616A0870606A401C6062208D401ECA
:102770002085608D401E6085208D00287FF464AF29
:1027800084F83D7084F83E5084F83C50CBE702203A
:10279000C9E70000020010000000FFFF0400010074
:1027A0002C0000202DE9FF4F83B09A46DDE91197F8
:1027B00093460446DDF84080FFF7FCFD054694F89B
:1027C0003D0020287FD11923012240492046009551
:1027D00001F046F9002876D194F83C00012872D027
:1027E000012084F83C0020680168C90703D1016812
:1027F00041F0010101602068016821F4006101607D
:10280000212084F83D00402084F83E000026266404
:10281000C4F82480A4F82A90608D20852C48E062BA
:10282000CDE9007553465A462046049901F098F8C0
:1028300070B930E02A463946204601F0EFF958B128
:10284000206C042804D12068016841F40071016003
:10285000012007B0BDE8F08F606A21680078086148
:10286000606A401C6062218D491E89B22185628D9B
:10287000521E628522685369DB435B070BD469B142
:1028800000781061606A401C6062208D401E2085C7
:10289000608D401E6085208D0028CBD12A463946A8
:1028A000204601F0B1F80028CAD154F83D0B016868
:1028B00041F400710160202004F81E09E677667774
:1028C0000020C6E7FFE70220C3E700000200100077
:1028D0000000FFFF10B586B0002100910191029128
:1028E000039100681349884222D1134CA06940F03B
:1028F0000800A061A069694600F0080004904FF448
:102900004070009012200190032003900B48FFF7C5
:1029100057FC0B48416841F0E06141F00201416021
:10292000E06940F40010E061E06900F400100490F8
:1029300006B010BD0054004000100240000C0140E1
:1029400000000140024881680278114481607047AC
:1029500020000020074810B5016841F01001016017
:10296000032000F075F80F2000F006F800F024F8BE
:10297000002010BD0020024070B50D4D04464FF4FC
:102980007A712878B1FBF0F00A490968B1FBF0F0E0
:1029900000F0DCFA48B9102C07D200222146501E64
:1029A00000F036F800206C6070BD012070BD0000A2
:1029B000200000202C0000200C4808B5816941F05F
:1029C00001018161816901F001010091C16941F05A
:1029D0008051C161C06900F0805000900448416896
:1029E00021F0E06141F00071416008BD001002403B
:1029F00000000140002809DB00F01F020121914086
:102A00004009800000F1E020C0F80011704700008C
:102A1000F0B40E4B1B680C46C3F30223C3F1070549
:102A2000042D00D90425191D072901D2002300E037
:102A3000DB1E012606FA05F1491E214099409E4001
:102A4000761E16403143F0BC01F0F9BF0CED00E0FA
:102A5000064900F0070208684FF6FF03184040EAF5
:102A60000220034A10430860704700000CED00E0AC
:102A70000000FA052DE9F0470F46050061D0434EEE
:102A8000306800F00700B84209D2306820F0070033
:102A900038433060306800F00700B84251D12868F0
:102AA0003B4C810712D5400703D5606840F4E060D5
:102AB00060602878000703D5606840F4605060606B
:102AC0006068A96820F0F000084360602878C007BB
:102AD00028D06868012810D02168022810D0890702
:102AE00000292EDA616821F0030101436160FFF7DC
:102AF00061FC804641F288390DE021688903EFE7E7
:102B00008901EDE7FFF756FCA0EB0801494502D922
:102B10000320BDE8F0876068696800F00C00B0EB46
:102B2000810FEFD1306800F00700B8420BD9306850
:102B300020F0070038433060306800F00700B842EA
:102B400001D00120E5E72878400705D56068E968ED
:102B500020F4E060084360602878000706D56068CC
:102B6000296920F4605040EAC100606000F038F844
:102B70006168084AC1F30311515CC8400649086006
:102B800006480068FFF7F8FE0020C2E70020024078
:102B900000100240106500082C00002024000020D6
:102BA0000448054900684968044AC1F30221515CA0
:102BB000C84070472C00002000100240206500082B
:102BC0000448054900684968044AC1F3C221515CC0
:102BD000C84070472C00002000100240206500080B
:102BE0000E4A51680E4801F00C03042B11D0082B3B
:102BF0000FD10C48C1F38343C903C05C0AD55168A7
:102C0000084AC1F34041921E515C054A5043B0FB53
:102C1000F1F070470449484370470000001002403B
:102C200000127A000065000800093D002DE9F84F08
:102C3000040070D02078C04DC00749D06868C0F348
:102C40008100012807D06868C0F38100022809D1FB
:102C50006868C00306D52868800339D560680028F5
:102C6000E7D035E06068B0F5803F0BD010B1B0F52B
:102C7000A02F11D0286820F480302860286820F424
:102C8000802002E0286840F480302860606890B1BD
:102C9000FFF790FB06460AE0286840F48020286091
:102CA000F0E700BFFFF786FB801B642873D8286815
:102CB0008003F7D50CE0FFF77DFB064605E000BF7B
:102CC000FFF778FB801B6428F0D828688003F7D4CE
:102CD00020789A4E80074FF001094FF0000839D54F
:102CE000686810F00C0F07D06868C0F381000228F4
:102CF00009D16868C00306D42868800714D5206904
:102D0000012808D110E02069B0B1C6F80090FFF7A3
:102D100051FB074605E00AE1FFF74CFBC01B022808
:102D2000C4D828688007F7D52868616920F0F800C2
:102D300040EAC10028600DE0C6F80080FFF73AFBCA
:102D4000074604E0FFF736FBC01B022823D828689B
:102D50008007F7D4207800072CD57948A169D9B12C
:102D6000C0F80090FFF726FB074604E0FFF722FBC0
:102D7000C01B02280FD8686A8007F7D571484FF446
:102D8000FA510068B0FBF1F0009000BF0098411EBE
:102D90000091FAD20EE080E0C0F80080FFF70AFB55
:102DA000074604E0FFF706FBC01B022875D8686AD7
:102DB0008007F7D42078400760D5E8690027C00075
:102DC00008D4E86940F08050E861E869012700F024
:102DD000805000905C480168C90513D4016883469F
:102DE00041F480710160FFF7E5FA824606E000BF1A
:102DF000FFF7E0FAA0EB0A0064284ED8DBF80000E9
:102E0000C005F5D5E06801280AD008B1052813D01F
:102E1000286A20F001002862286A20F0040002E0FD
:102E2000286A40F001002862E06841F2883B98B1CE
:102E3000FFF7C0FA82460BE0286A40F004002862DF
:102E4000EEE700BFFFF7B6FAA0EB0A0159455AD8E2
:102E5000286A8007F6D50CE0FFF7ACFA824605E059
:102E6000FFF7A8FAA0EB0A0159454CD8286A800759
:102E7000F6D41FB1E86920F08050E861E06988B3BA
:102E80006968C1F38101022944D00228C6F8608034
:102E900004D0FFF78FFA044638E034E0FFF78AFAEF
:102EA000074604E0FFF786FAC01B02282BD82868E3
:102EB0008001F7D4206AB0F5803F05D16868A16829
:102EC00020F4003008436860D4E9080108436968C9
:102ED00021F4741108436860C6F86090FFF76AFA3D
:102EE000044606E025E000BFFFF764FA001B022855
:102EF00009D828688001F7D51BE000BFFFF75AFA10
:102F0000001B022802D90320BDE8F88F2868800141
:102F1000F4D40EE00128F7D06868226A00F480310A
:102F2000914204D1616A00F47010884201D00120FE
:102F3000EAE70020E8E700000010024000004242FB
:102F4000800442422C0000200070004010B5401E5A
:102F5000B0F1807F01D3012010BD4FF0E02460610B
:102F60000F21601701F06BFD0020A0610720206198
:102F7000002010BD7047704710B590F83C20012A22
:102F800022D0012280F83C20CA688C6822F440726A
:102F900022434C6822F4806222430C6822F40062CF
:102FA00022430C6922F4805222434C6922F40052DD
:102FB0002243C969002322F480420A4301684A641B
:102FC00080F83C30002010BD022010BD70B590F894
:102FD0003C20012A26D0012480F83C40022280F8BF
:102FE0003D2003685A689D6822F070060A683243E3
:102FF0005A600D4B02689A4208D0B2F1804F05D05A
:103000000A4B9A4202D00A4B9A4204D1496825F0F1
:1030100080031943916080F83D40002180F83C1006
:10302000084670BD022070BD002C01400004004025
:103030000008004010B5040003D094F83D0010B122
:1030400007E0012010BD002084F83C00204600F07D
:103050001FF8022084F83D00211D206801F05CFB70
:10306000012084F8460084F83E0084F83F0084F88C
:10307000400084F8410084F8420084F8430084F85A
:10308000440084F8450084F83D00002010BD000095
:1030900008B5114A01681148914208D1816941F48B
:1030A00000618161806900F40060009008BD0C4AF5
:1030B0009142FBD1C16941F00401C161C0690022A4
:1030C00000F00400009011461E20FFF7A1FCBDE8AF
:1030D00008401E20FFF78EBC002C0140001002406B
:1030E0000008004090F83D10012901D001207047F0
:1030F000022180F83D100168CA6842F00102CA60EE
:1031000000680B49884208D0B0F1804F05D00949CA
:10311000884202D00849884204D1816801F0070141
:10312000062903D0016841F00101016000207047C9
:10313000002C0140000400400008004070B5044627
:1031400090F83C000025012817D0012684F83C6047
:10315000022084F83D002068826822F0770222F481
:103160007F4282600868502838D00DDC20284FD07C
:1031700005DC90B3102811D14AE0022070BD302840
:1031800046D040280AD13BE060282FD070280DD0CF
:10319000B0F5805F03D0B0F5005F12D0012584F850
:1031A0003D60002084F83C00284670BDCB68D1E922
:1031B0000121206801F0F9FA2068816841F0770167
:1031C00009E0CB68D1E90121206801F0EEFA20681E
:1031D000816841F480418160E1E719E0CA6849688B
:1031E000206801F097FB5021206806E0CA68496812
:1031F000206801F0A0FB6021206801F0E0FACEE732
:10320000CA684968206801F085FB40212068F4E71E
:10321000226801461046F0E72DE9F0410D46040012
:1032200003D094F83D0018B108E00120BDE8F0811A
:10323000002084F83C00204600F040F8022084F88A
:103240003D002068816844F2070291438160211D9E
:10325000206801F061FA226890689169166A2B680B
:10326000AF69034340F20330814341EA0721A86874
:10327000EF6908434FF6FC418843E96840EA0720BC
:10328000014328692F6A000140EA07300843696852
:103290006D6926F0220646EA0515294393602268E7
:1032A000906154F8460B0162012004F81F09E07593
:1032B0002076E0762077A0750020B7E700B585B0CE
:1032C0000021009101910291039102681849194867
:1032D000B2F1804F19D0184B9A4214D1CA6942F00A
:1032E0000202CA61CA6902F0020204928A6942F0CB
:1032F00004028A61896901F004010491C0210091EE
:103300006946FEF75DFF05B000BDCA6942F00102E3
:10331000CA61CA6902F0010204928A6942F0040299
:103320008A61896901F0040104910321E7E7000043
:1033300000100240000801400004004070B590F801
:103340003E60044690F83F5090F8423090F8432099
:10335000022021B104290ED0012E1BD114E0012E30
:1033600018D1012B16D184F83E0084F842000122C6
:103370000021206820E0012D0CD1012A0AD184F817
:103380003F0084F8430014E0012D03D1012B01D14B
:10339000012A01D0012070BD84F83E0084F83F006E
:1033A00084F8420084F8430001220021206801F0E3
:1033B000EFF901220421206801F0EAF92068016890
:1033C00041F001010160002070BD70472DE9F0411E
:1033D00004460068C66805694FF00007A90713D5C1
:1033E000B10711D5F91E016101202077206880699D
:1033F0008007204602D0FFF7E8FF04E000F0A4F8C1
:10340000204600F036F92777680716D5700714D5DF
:1034100021686FF00400086102202077206880692D
:1034200010F4407F204602D0FFF7CFFF04E000F009
:103430008BF8204600F01DF92777280715D53007AF
:1034400013D521686FF008000861042020772068F8
:10345000C0698007204602D0FFF7B7FF04E000F004
:1034600073F8204600F005F92777E80616D5F00630
:1034700014D521686FF010000861082020772068BB
:10348000C06910F4407F204602D0FFF79EFF04E0A1
:1034900000F05AF8204600F0ECF82777E80708D04B
:1034A000F00706D021686FF001000861204600F0A7
:1034B0002FF9280608D5300606D521686FF0800060
:1034C00008612046FFF756FD680608D5700606D548
:1034D00021686FF040000861204600F037F9A80627
:1034E0000AD5B00608D521686FF020000861204693
:1034F000BDE8F041FFF73FBDBDE8F08100B585B004
:103500000021009101910291039100680B498842CA
:1035100012D10B48816941F00401816180696946DB
:1035200000F0040004904FF44070009002200190DD
:1035300003900448FEF744FE05B000BD002C014096
:103540000010024000080140704770B5044690F832
:103550003C0000260D4601280FD0012084F83C00D5
:103560006AB1042A1DD0082A2FD00C2A3FD0012688
:10357000002084F83C00304670BD022070BD2068F9
:1035800001F026F92068816941F008018161206815
:10359000816921F004018161206881692A691143F0
:1035A00011E0206801F03CF92068816941F4006174
:1035B00081612068816921F480618161206881696D
:1035C0002A6941EA02218161D2E7206801F054F9B9
:1035D0002068C16941F00801C1612068C16921F01A
:1035E0000401C1612068C1692A69114311E02068A2
:1035F00001F06EF92068C16941F40061C161206881
:10360000C16921F48061C1612068C1692A6941EA08
:103610000221C161ACE710B5040003D094F83D006D
:1036200010B107E0012010BD002084F83C002046C6
:1036300000F01EF8022084F83D00211D206801F0F2
:103640006BF8012084F8460084F83E0084F83F00BF
:1036500084F8400084F8410084F8420084F8430074
:1036600084F8440084F8450084F83D00002010BD33
:103670007047704710B50446022249B104290ED0A4
:10368000082913D094F84100012816D0012010BD5C
:1036900094F83E000128F9D184F83E200FE094F818
:1036A0003F000128F2D184F83F2008E094F8400060
:1036B0000128EBD184F8402001E084F84120012268
:1036C000206801F065F80F492068884203D1426CF8
:1036D00042F4004242642068884208D0B0F1804F32
:1036E00005D00949884202D00849884204D181683E
:1036F00001F00701062903D0016841F001010160D2
:10370000002010BD002C01400004004000080040D3
:1037100010B50068084988420DD181140748FEF7AA
:103720003FFE002807D10748054A4168BDE8104020
:10373000054800F0ABBE10BD00080040000C014081
:103740008D46000800000020F0020020704770B590
:10375000040004D094F84100002510B106E00120D7
:1037600070BD84F84050204600F024F8242084F8EE
:1037700041002068C16821F40051C160204601F079
:10378000EDF82068016921F49041016120684169E8
:1037900021F02A0141612068C16841F40051C160F3
:1037A0006564202084F8410084F8420065630020AD
:1037B00070BD000030B585B00024009401940294DF
:1037C00003940068174988422AD11748816941F457
:1037D00080418161816901F480410491816941F0F6
:1037E000080181618069114D00F0080004904020BB
:1037F0000090022001900320039069462846FEF7BE
:10380000DFFC8020CDE90004694628460294FEF7DB
:10381000D7FC0748416841F0E06141F00401416094
:1038200005B030BD0038014000100240000C0140DE
:1038300000000140FEE701684A69D24352050FD4F7
:103840006FF480624A61002140F8301F20224273E9
:103850008173026942F00402026101730120704722
:10386000002070472DE9F84F0446006889460B9DFB
:1038700001689846174641F480610160206801683C
:1038800041F48071016000954FF0011B0022594600
:1038900020460A9B00F0E4F84FF4007A40B120681B
:1038A0000068C00501D5C4F840A00320BDE8F88F2A
:1038B000216809F0FE0008612B46284920460A9A33
:1038C00000F016F9F0BB20684169806900902A4633
:1038D00020460A9900F0A2F940B1206C04283AD1A0
:1038E0002068016841F40071016034E0FEB2B8F173
:1038F000010F09D02168380A08612A4620460A9932
:1039000000F08CF90028E8D1206806612A4620469C
:103910000A9900F083F90028DFD12068016841F49A
:103920008071016000950022594620460A9B00F0F4
:1039300097F80028B3D1216809F0FF0040F001009A
:10394000086100E007E02B46044920460A9A00F08F
:10395000CFF80028AAD00120A8E70000020001004B
:103960002DE9F843044600680D46DDE90897016833
:103970009846164641F4807101604B4600224FF094
:1039800001112046009700F06BF848B120680068EC
:10399000C00502D54FF4007020640320BDE8F88311
:1039A000216805F0FE0008613B464A46154920465D
:1039B00000F09EF888B920684169806900903A4615
:1039C0004946204600F02AF948B1206C042804D169
:1039D0002068016841F4007101600120DEE7F5B262
:1039E000B8F1010F09D02168300A08613A4649460A
:1039F000204600F013F90028E7D120680561002077
:103A0000CCE700000200010070B516460D460446E2
:103A10001EE02046FFF70FFF08B1012070BD681CB3
:103A200016D0FEF7C7FC801BA84200D885B92068D5
:103A30004069C04340070BD5002044F8300F2021D7
:103A40006173A073216941F0200121612073E4E7D3
:103A500020684069C0434007DBD4002070BD0000EF
:103A60002DE9F047984617460D460446C1F3074630
:103A7000DDF820902AE000BFB8F1FF3F26D0FEF726
:103A800099FCA0EB0901414502D8B8F1000F1DD106
:103A90002068012E16D0806925EA00000004000C81
:103AA00012D00020B84211D1002044F8300F20215C
:103AB0006173A073216941F020012161207301200D
:103AC000BDE8F0874069E7E70120EBE72068012EB9
:103AD0000AD0806925EA00000004000C06D000200E
:103AE000B842C9D00020EBE74069F3E70120F7E7CF
:103AF0002DE9F047984616460D4604464FF000095A
:103B00004FF0200AC1F3074723E020684069C04313
:103B1000400515D42068016841F4007101602168F6
:103B20006FF480604861C4F8309084F83DA084F858
:103B30003E90216C41F00401216484F83C9021E026
:103B4000701C06D0FEF736FCA0EB0800B04203D88C
:103B500016B1012F1FD021E02068012F15D08069F8
:103B600025EA00000004000C18D000BF44F8309F84
:103B700084F80DA084F80E90216941F020012161A4
:103B800084F80C900120BDE8F087406925EA000028
:103B90000004000CEAD12068406901E020688069D7
:103BA00025EA00000004000CAFD1ECE72DE9F0415C
:103BB000002590460E460446202728E04069C04371
:103BC000C0060CD454F8301B6FF01000486144F864
:103BD00010596777A577206A2062257714E0FEF7F1
:103BE000E9FBA0EB0800B04200D886B92068406924
:103BF000C04340060BD544F8305F6773A573206956
:103C000040F02000206125730120BDE8F08120688C
:103C10004169C9434906D1D40020F6E770B516467C
:103C20000D4604461EE02046FFF705FE08B10120C0
:103C300070BD681C16D0FEF7BDFB801BA84200D8E3
:103C400085B920684069C04300060BD5002044F8C0
:103C5000300F20216173A073216941F0200121619F
:103C60002073E4E720684069C0430006DBD40020ED
:103C700070BD2DE9FF5F96B024AD044695E8830141
:103C8000D4E908230893069201F07AFF3A464346A6
:103C900001F050FDD4E9062301F068FA0791129073
:103CA000D4E910A3524638464146099301F042FD3B
:103CB000CDE90001D4E90C939B464A4601F060FF30
:103CC000D4E90E23CDE90B3201F05AFFD4E90023E9
:103CD00001F04CFA3A46434601F02CFDD4E90A23A0
:103CE00001F044FA05460E46DDE900014A465B460E
:103CF00001F054FE8B460490DDE90001DDE90B3252
:103D000001F04CFE0D910090D4E902013A46434681
:103D100001F010FD5246099B01F028FACDE90E0191
:103D2000D4E904232846314601F020FA80468A4629
:103D300002460B462846314601F0D4FA81460F462A
:103D4000424653460D99009801F0CCFA80468A46C7
:103D5000DDE91801079B129A01F012FF0B914A4608
:103D60003B46109001F0E6FC079B129A01F0FEF929
:103D7000C4E9060107911290404651460B9B109AE8
:103D800001F0D8FC089B069A01F0F0F9C4E908019B
:103D9000049806902A4633464846394601F0CAFC44
:103DA0002A46334601F0FAFDC4E90A015B4648465B
:103DB0003946069A01F0BEFC5B46049A01F0EEFD1E
:103DC000C4E90C012A4633464046514601F0B2FC94
:103DD0000D9B009A01F0E2FDC4E90E015B464046EE
:103DE0005146069A01F0A6FCDDE90E2301F0D6FD4E
:103DF000C4E91001079912981AB0BDE8F09F2DE9A7
:103E0000F04186B08046012504A8CDE90005642470
:103E10002B467522D02102944046FEF795FB9DF873
:103E20001000682803D0012006B0BDE8F08100270B
:103E300003AE8DF80C700096CDE9015401236B227E
:103E4000D0214046FEF7AEFC07208DF80C0000960E
:103E5000CDE9015401231922D0214046FEF7A2FCEE
:103E60008DF80C700096CDE9015401231C22D0215D
:103E70004046FEF797FC8DF80C700096CDE9015492
:103E800001231B22D0214046FEF78CFC0020CBE70B
:103E90002DE9F04F89B00C4664230E2204A98DE869
:103EA0000E0001233B22D021FEF74EFBBDF810008F
:103EB00040BA00B22080BDF8121049BA09B2618040
:103EC0008946BDF8141049BA09B2A1808846BDF8E8
:103ED000161049BA0FFA81FABDF8181049BA0FB294
:103EE0002784BDF81A1049BA0EB26684BDF81C10BA
:103EF00049BA0DB2A58401F0B6FB6FF00D0B5A461E
:103F000002F091FAC4E90201484601F0ACFB5A46BE
:103F100002F089FAC4E90401404601F0A4FB002242
:103F2000614B01F0DFF9C4E90601504602F074F874
:103F30005E4901F0AFFF5E4901F038FF206438466A
:103F400001F091FB5B4F00223B4601F0CBF9C4E945
:103F50000A01304601F087FB00223B4601F0C2F91E
:103F6000C4E90C01284601F07EFB00223B4601F02B
:103F7000B9F9C4E90E01FEF71DFA4F4D2968401A40
:103F800001F088FB00224D4B01F0ACF981468A46D6
:103F9000FEF710FA2860B4F90010B4F904004943A0
:103FA00000FB001001F05FFB01F072F800220546F3
:103FB0000E46134601F0EEFA10D0B4F9020001F0FB
:103FC00052FB2A46334601F08DF900F0B3FD3C4A1E
:103FD0003C4B01F0AFFB0746884601E00027B8469E
:103FE000B4F9040001F03FFB0646B4F900000D46A9
:103FF000404201F038FB32462B4600F0ABFE304A1F
:10400000304B01F097FBDFF8C0B005460E460022AA
:104010005B4601F053FB06D2D4E9140100222B4B7E
:1040200001F086FC0DD30022284B2846314601F0D2
:104030007FFC0DD2D4E9140100225B4601F03EFB67
:1040400006D21D485030C0E90656C4E914560DE0AA
:10405000CDE9029AD4E90C01CDE9000116482A46BF
:1040600033465030FFF705FEC4E91401D4E91401CA
:1040700021F000410022154B01F05AFC03D2E16A05
:1040800081F00041E162CDE9029AD4E90C01CDE969
:10409000000109483A4643460830FFF7EAFDC4E903
:1040A000120109B0BDE8F08F0029CC400000AA43FE
:1040B000B81E1242006060403000002000408F4077
:1040C000F8C1631ADCA54C40008056C00080564001
:1040D0002DE9F04385B00024254800940194029412
:1040E0000394816941F020018161816901F020011F
:1040F0000491816941F004018161816901F0040149
:104100000491816941F0080181618069DFF8648070
:1041100000F008004FF40055049000222946404664
:10412000FEF743F9DFF850904FF44067002239461C
:104130004846FEF73AF96810CDE900046946404662
:104140000294FEF73DF80095022601250396CDE97D
:10415000015469464046FEF733F800970396CDE9CF
:10416000015469464846FEF72BF805B0BDE8F083D8
:1041700000100240000C01400008014010B596B04C
:1041800000240F9410941194129413941C216846E7
:104190001494FCF770F9202107A8FCF76CF92C485F
:1041A0002A4901604721C0E901146321C0E90314D1
:1041B0008021C0E90541FEF73DFF08B172B6FEE778
:1041C0004FF480500F900FA92148FEF7B7FF08B1B8
:1041D00072B6FEE71E48FFF71EFA08B172B6FEE798
:1041E000139413A91A481494FEF7F0FE08B172B69E
:1041F000FEE76020CDE90004029403940494059442
:104200000022694612480694FFF79FF908B172B67A
:10421000FEE7042269460E48FFF797F908B172B627
:10422000FEE70794089409944FF400500A94CDE9EE
:104230000B4007A906480E94FEF79EFE08B172B621
:10424000FEE70348FFF75AF916B010BD002C0140F5
:104250002C01002010B58CB024216846FCF70BF926
:104260000024164809944FF080410A94C0E90014D4
:104270004FF6FF71C0E90241802104618161032092
:10428000CDE9000401200A21CDE902040491CDE921
:1042900005400794694609480894FEF7BDFF08B138
:1042A00072B6FEE7099409A904480A94FEF78EFE47
:1042B000002801D072B6FEE70CB010BD74010020DA
:1042C00010B58CB024216846FCF7D5F800241748B7
:1042D000099415490A94C0E900144FF6FF71C0E92A
:1042E00002418021046181610320CDE900040120A5
:1042F0000A21CDE902040491CDE9054007946946FD
:104300000A480894FEF788FF08B172B6FEE70994E0
:1043100009A906480A94FEF759FE002801D072B692
:10432000FEE70CB010BD000000040040BC010020FE
:1043300010B586B0002417480094019402940394A9
:10434000049413490594016041F61F41C0E901142A
:1043500040F2E731C0E903148461FEF76BFE08B157
:1043600072B6FEE74FF48050009069460948FEF7A8
:10437000E5FE08B172B6FEE7049404A90548059469
:10438000FEF724FE002801D072B6FEE706B010BD8D
:104390000008004004020020FEE7000000B585B0E0
:1043A000002002900B48816941F00401816180691D
:1043B000694600F0040004904FF440600090012032
:1043C0000190022003900448FDF7FAFE00F061F925
:1043D00005B000BD001002400008014070B50C4659
:1043E0000D4D4FF40061012801D0022801D00022B8
:1043F00000E001222846FDF7D8FF4FF48061012C30
:1044000001D0022C01D0002200E001222846BDE8A4
:104410007040FDF7CABF0000000801402DE9F041DF
:104420000C46064601F096FC144F21F00041002294
:104430003B4601F07FF901F0E9F885B2204601F032
:1044400089FC21F0004100223B4601F073F901F0A4
:10445000DDF80B4980B20A68556309688863094929
:104460008E4201D2012000E002208C4201D20121C3
:1044700000E00221BDE8F041FFF7B0BF00388F40F7
:104480002C01002000008080FEE700002DE9FF5F86
:1044900006460C4600209046114600908847254667
:1044A000DFF8F8B0DFF8F8A00027FDF783FF0190F0
:1044B0004FF07E590020C6E900904146B060884721
:1044C0004FF4FA70FDF7B8FD00222146304600F0A7
:1044D0008BF8414688475946204601F0C9FE00D274
:1044E000A3465146204601F0C3FD00D2A2462D4806
:1044F000854202D3B4F5000F04DAB5F5000F0ADBEC
:10450000844208D37F1C012F02D0032F3AD002E04F
:10451000FDF750FF019025461420FDF78DFD0A2F71
:10452000D2DB4D462049484601F0D6FD8146306039
:104530001E49284601F0D0FD009901F0ABFC04466D
:1045400070601B49284601F0C7FD009901F0C4FDC9
:10455000B06001F0FFFB07468846204601F0FAFBF9
:1045600004460D46484601F0F5FB8DE8B0010246D1
:104570000B4610A0FBF754FE04B03046BDE8F05FD8
:1045800000F079B8FDF716FF0199401A01F05CFDC3
:104590004FF0FF3101F075FF0090C2E700C079C411
:1045A00000C07944000080809A99193F9A99993FF8
:1045B0009A99993D4175746F2D74756E656420509C
:1045C00049443A204B70203D20252E33662C204B49
:1045D00069203D20252E33662C204B64203D20256C
:1045E0002E33660A000000002DE9F0410446104613
:1045F00001F070FE05462946206901F0D7FB2061D5
:1046000006462846E16801F065FE0146E560A068BF
:1046100001F062FD07463146606801F05DFD064627
:104620002946206801F058FD314601F0BFFB3946AC
:1046300001F0BCFB0449884202D80449884200DDED
:104640000846BDE8F081000000007AC400007A440A
:1046500080E80E000021C160016170473EB504464C
:1046600002AA01A96846FDF79DFC9DE80E002046C0
:10467000FFF7EEFF3EBD07C8FDF7B0BC70477047BF
:104680000149012008707047C80000200146FFF76B
:10469000C5BE10B500210846FFF7C0FE0021BDE8E9
:1046A00010400846FFF79ABEFEF74CB930B58FB000
:1046B00028216846FBF7DFFE14210AA8FBF7DBFE82
:1046C00001210804CDE90010002402940225049180
:1046D000CDE907504FF4E01009906846FEF7A6FABE
:1046E00008B172B6FEE70F20CDE90A054FF48060ED
:1046F000CDE90C4002210AA80E94FEF7BBF9002870
:1047000001D072B6FEE70FB030BD70470148FEF72A
:104710005DBE000004020020F0B50268194B1A4C7F
:104720001A4D4FF08047984205D0B84203D0A042BE
:1047300001D0A84203D122F070064A683243984261
:1047400005D0B84203D0A04201D0A84203D122F440
:104750004074CA6822434C6922F0800222430260FE
:104760008A68C2620A688262984201D1096901635B
:10477000012141610169C90703D0016921F00101EB
:104780000161F0BD002C0140000400400008004021
:1047900010B501F01F030121046A99408C430462A3
:1047A000016A9A401143016210BD10B5846842EA63
:1047B000032224F47F440A432243826010BD8268AE
:1047C00022F070020A4342F0070181607047000046
:1047D00030B5036A026A22F001020262426884690B
:1047E00024F073050C682C4323F002058B682B43DF
:1047F0000A4DA8420BD123F00805CB6822F4407281
:104800002B434D6923F0040315438A692A43426010
:10481000846149684163036230BD0000002C01409F
:1048200030B5026A036A23F01003036243688469A7
:104830000D6824F4E64444EA05248D6822F0200241
:1048400042EA05120B4DA8420ED1CD6822F080023B
:1048500042EA05124D6923F4406343EA85038D69FA
:1048600022F0400243EA8503436084614968816322
:10487000026230BD002C014030B5036A026A22F4A6
:10488000807202624268C46923F4007324F07305E5
:104890000C682C438D6843EA05230C4DA8420ED1C9
:1048A000CD6823F4006343EA05234D6922F44052A6
:1048B00042EA05128D6923F4806342EA05124260E0
:1048C000C4614968C163036230BD0000002C01402F
:1048D00030B5046A026A22F4805202624268C369F7
:1048E0000D6823F4E64343EA05238D6824F400545D
:1048F00044EA0534064DA84204D14D6922F48042B1
:1049000042EA85124260C36149680164046230BDB5
:10491000002C014010B5036A046A24F0010404620B
:10492000846924F0F00444EA021423F00A020A43E2
:104930008461026210BD10B5036A046A24F0100499
:104940000462846923F0A00324F4704444EA023230
:1049500043EA01118261016210BD000070B5044696
:1049600000680169E26821F4405111430161216945
:10497000A0680843616908432168CA6841F20C6372
:104980009A430243CA6020684169A26921F44071D8
:10499000114341611E492068884202D1FEF710F997
:1049A00001E0FEF7FDF800EBC00101EB00126068CA
:1049B00064218000B2FBF0F3B3FBF1F36FF0180653
:1049C0007343B2FBF0F5B2FBF0F605EB830532233F
:1049D00003EB0515B5FBF1F5B6FBF1F605F0F005B7
:1049E00005EB0615B2FBF0F6B2FBF0F0B0FBF1F010
:1049F0006FF01802504306EB800003EB0010B0FB91
:104A0000F1F0216800F00F002844886070BD0000BC
:104A100000380140FEE7490050EAC12018BF0420D9
:104A20004A0D18BF40F0010040F2FF72B2EB515F37
:104A300008BF40F00200012808BF052070470907A1
:104A4000090E002804DB00F1E02080F80014704714
:104A500000F00F0000F1E02080F8141D70472DE9F0
:104A6000F0414F1E00EBC7010446D1E90001154695
:104A70001E4637F006020DD02A46334600F05AFE95
:104A80007F1E04EBC703D3E9002300F06FFB37F070
:104A90000602F1D1022F25D0042F13D0062F18BF04
:104AA000BDE8F0812A46334600F044FED4E90A23EB
:104AB00000F05CFB2A46334600F03CFED4E90823B4
:104AC00000F054FB2A46334600F034FED4E90623B6
:104AD00000F04CFB2A46334600F02CFED4E90423B8
:104AE00000F044FB2A46334600F024FED4E90223BA
:104AF00000F03CFB2A46334600F01CFED4E90023BC
:104B0000BDE8F04100F032BB012201F08CBC00F0A6
:104B10002DBB0000024A0020110701F084BC0000F8
:104B200001FDFFFF30380A2801D201207047002024
:104B3000704700002DE9F84F04460D4621F0004073
:104B400000917349814211DC7249884201DC06D12F
:104B50002CB120462946BDE8F84FFFF7D5BF6E4877
:104B6000002DCCBF6D496E49BDE8F88F6D4981427B
:104B700011DD6D498142D8BF4FF0FF366DDD204613
:104B80002946FFF748FF042808BFFFF7C3FF204668
:104B90002946BDE8F88F6549654F25F000458142FB
:104BA00033DD6449814219DD002632464FF08043EF
:104BB0002046294600F0DAFA80468A46012220463D
:104BC000294601F030FC00223B4600F0D9FF424666
:104BD000534600F087FB04460D463EE001260022C6
:104BE000BA463B462046294600F0C0FA80460F46AA
:104BF000002253462046294600F0C2FF42463B466B
:104C000000F070FB04460D4627E04B4981421BDD56
:104C1000DFF828A10226002253462046294600F04C
:104C200089FD00223B4600F0A1FA80460F46002293
:104C300053462046294600F0A3FF42463B4600F07B
:104C400051FB04460D4608E0032622462B46002071
:104C50003B4900F047FB04460D4622462B461046D2
:104C6000194600F067FD8B46824602460B4600F06F
:104C700061FD07460246334888460B4606217844C4
:104C8000FFF7EDFE52465B4600F054FD82462E488B
:104C90008B463A46434605217844FFF7E0FE3A4604
:104CA000434600F047FD02460B46002E504659464B
:104CB0000CDA00F05BFA22462B4600F03BFD01B017
:104CC00022462B46BDE8F04F00F068BE00F04EFAD9
:104CD00022462B4600F02EFD1C4A7A4402EBC60306
:104CE000D3E9002300F04CFF22462B4600F048FF9A
:104CF000174A7A4402EBC603D3E9002300F04EFEC4
:104D0000009A002AB8BF81F00041BDE8F88F00008A
:104D1000000010440000F07F182D4454FB21F93F9F
:104D2000FB21F9BF0000DC3F0000203E0000F33F04
:104D30000000F03F0000E63F008003400000F83F25
:104D40000000F0BF26190000E418000082180000DF
:104D50004A1800002DE9F04D9446CCF1000423F0F0
:104D600000464CEA0404524F46EAD4749A468846F8
:104D700021F00042BC4206D8454240EA050442EA1E
:104D8000D474BC4204D9BDE8F04D6246FFF7BFBE03
:104D9000AAF14055A5F17F6555EA0C040BD0022419
:104DA00004EAAA74434DDFF810E144EAD87452EAE9
:104DB000000B04D00CE0BDE8F04DFFF7BBBE002CAB
:104DC00014BF012CBDE8F08D022C30D0032C32D062
:104DD00056EA0C0B0AD0BE4220D1BA4209D126F0C5
:104DE000804622F080423346114617E000291ADB44
:104DF00025E0DFF8C8B0FB44002C04BFDBE900016C
:104E0000BDE8F08D012C02BFDBE9000181F000411B
:104E1000BDE8F08D022C0AD0032C0CD0BA4212D17E
:104E2000B8F1000F0BDA23482549BDE8F08D28467C
:104E30002449BDE8F08D28467146BDE8F08D1D4837
:104E40002149BDE8F08D921B12153C2AC4BF1948B8
:104E50001D490EDCBAF1000FBEBF12F13C0F00205D
:104E6000014606DB624600F03DFA21F00041FFF703
:104E700061FE002C08BFBDE8F08D012C04BF81F05D
:104E80000041BDE8F08D114A114B022C07D000F013
:104E900077FE2A46BDE8F04D0A4B00F071BE00F0E7
:104EA0006FFE2A46BDE8F04D064B00F077BD0000CE
:104EB0000000F07F182D4454FB2109C0DE170000CC
:104EC000FB21F9BFFB210940FB21F93F075C1433AB
:104ED00026A6A13C8A68002A01DCFBF7B7BF521E58
:104EE0008A604A68C0B2531C4B6010707047000063
:104EF0001CB5FDF72FFDFFF7D9FBFFF7E9F8524886
:104F00005049002401605149C0E901144FF4804127
:104F1000C0E9034144618461C4610462FDF750FA51
:104F200008B172B6FEE7FFF729F9FFF793F9FFF72B
:104F3000C7F94848464901604FF4E131C0E901141E
:104F40000C21C460C0E904418461C461FEF7FFFB29
:104F500008B172B6FEE7FFF7EBF93E484838FEF7B6
:104F6000C1F83948FEF74BFF6420FDF765F8FFF7FD
:104F700015FAFFF785FB344937489C31FCF77EFF73
:104F80003449354890390830FCF778FF3148334BC5
:104F9000334A3449A430FFF75BFB2E48A430FFF7B7
:104FA0005DFB294800215430FEF764FB26480421AC
:104FB0005430FEF75FFB24483C219C30FEF7BEF9DD
:104FC00024483C219038FEF7B9F9FDF7F3F921495F
:104FD0001D484C31FEF75CFF1E4F1F4C4C37103CF8
:104FE000FDF7E8F91B4918484C31FEF751FFD7E9A6
:104FF000120100F089F805466060D7E9140100F05D
:1050000083F8A060134800222946A430FFF7ECFA89
:10501000E060217811B90146FFF700FA0E48FCF76D
:105020001CFF05460C480830FCF717FF0646606871
:1050300000F090FECDE9005602460B460AA0FBF7B1
:10504000EFF8CDE700540040D8000020A086010012
:10505000003801404C020020100000209A99993F2E
:105060000AD7233C0000A040416E676C653A2025BA
:105070002E32662C205370656564313A2025642CED
:10508000205370656564323A2025640A00000000F0
:105090002DE9F04106460F4600F08CFC041E0D463B
:1050A00018BF0120284320F00040C0F17F6000F1CC
:1050B000E040C00F0ED0301C18BF0120384320F054
:1050C0000040C0F17F6000F1E040C00F04BF01204C
:1050D000FBF700FA20462946BDE8F08110B500290B
:1050E0000AD00878002807D005487844FCF768F80B
:1050F000002801D0002010BD0248784410BD0000F7
:10510000B6150000AE15000021F00042A2F1605279
:10511000B2F5801F01F0004328BFD2F17F6C0BD99C
:105120005FEA001C43EAC20242EB507018BF7047AE
:1051300028BF20F001007047B2F5801FBCBF1846A1
:1051400070474FEA410C1CF5001F02D2084601F0DF
:105150008AB870B500F098FB00000089FFF7F6BF31
:105160004FF00040A0F580007047000010B591EAB4
:10517000030F48BF83F0004300F10A85841A71EBE6
:10518000030C05D2121943EB0C03001B61EB0C015D
:10519000DFF824E14FEA1154A4EB135C1EEA430F3D
:1051A00018BF9EEA445F73D023EA0E03DCF1200EA1
:1051B00021EA045143F4801332D322FA0CFE10EB9F
:1051C0000E0023FA0CFE41EB0E01CCF1200E03FA87
:1051D0000EFE10EB0E0051F10001B1F5801FCCF175
:1051E000200E32D201EB045112FA0EF2BDE810404B
:1051F00058BF7047401C38BF5FEA420218BF704773
:10520000002814BF20F0010041F100014FEA4103E2
:1052100013F5001F38BF7047A1F1C04100F082BBF9
:10522000012A43EB0302ACF1200CDCF11F0E32BF6C
:105230004FF0000E23FA0CF310EB030041EB045186
:10524000B4EB115FD0D0A1EB045101F580114908F6
:105250005FEA300001EB04510ED350F1000038BF7B
:1052600012FA0EFE08D1BDE81040C9E7401C38BF55
:105270005FEA4202CAD1C3E7BDE810404FEA4103EA
:1052800013F5001F38BF7047A1F1C04100F04ABBC1
:105290009EEA445F08D011EA5E0FBDE8104004BFEB
:1052A00001F0004100207047BDE8104070B500F0EB
:1052B000EBFA00BF64FBBE3E0000E0FF02494FF086
:1052C000000001F07EB800BF0000F87F491058BF11
:1052D000C1F140415B1058BFC3F140438B42EFF333
:1052E000008070472DE9C04130B4DFF8A0C23CEA2D
:1052F000111418BF3CEA131400F0EC8081EA030596
:105300001CEA111444EAD57418BF1CEA131500F006
:10531000C780A4EB05044FF0004545EAC12145EAEA
:10532000C32341EA505143EA525304F17F74994236
:1053300004F500344FEAC0204FEAC22208BF904271
:1053400000F09C804FEA13650FF24016765D4FEA3D
:10535000134506FB05F7C7F1807706FB07F74FEA11
:10536000D737A7FB03687642C8F58038A7FB06CE7F
:1053700038BFA8F1010807FB08E64FF0000EA6FBB6
:10538000028CE6FB03CEDCF1000CCEF1004E38BF00
:10539000AEF1010EA6FB0C584FF000074FF00005D0
:1053A000E6FB0E87A1FB08C6A0FB07CE16EB0E0698
:1053B00045F10005E1FB076515F1E04E7EBFA4F560
:1053C00080345FEA46066D4116F1800745F100051D
:1053D0004FEA17274FEA066647EA0567A6F1DE4659
:1053E000B6F1805F4FEA15251FD9384624F0010C2D
:1053F00005EBC471BCF1FE6F01EB0C1102D8F0BCDF
:10540000BDE8008124425CBF01F5801E9EEAC47F96
:1054100002D4F0BCBDE80081244238D4F0BCA1F134
:10542000C041BDE8004100F07DBA4FEAD22242EA15
:1054300043524FEAD323A7FB02864FEAD02040EA2B
:10544000415007FB03661EEA0E0F4FEAD12105FB10
:10545000026658BFA6EB0056B6EB00564FEA520E56
:105460004EEAC37E18EB0E0E56EB530EBDD518EB6D
:1054700002085E417F1C55F10005B6E74FF4801528
:105480004FF000074FF000064FF00008ADE7F0BC0A
:105490004FF0000001F1C04101F00041BDE8008182
:1054A00011EA0C1F0CEA131500D00CE013EA0C1FD4
:1054B00000F025804FF00000F0BC81EA030101F00C
:1054C0000041BDE80081F0BCBDE8004181EA030174
:1054D00000F028BAF0BCBDE8004170B500F0D4F986
:1054E000097EFC3E00F007B881EA03014FF000009E
:1054F00001F00041704781EA030100F013BAF0BCEB
:10550000BDE800414FF0000021497047FFFDFBF965
:10551000F7F5F4F2F0EEEDEBE9E8E6E4E3E1E0DEE6
:10552000DDDBDAD8D7D5D4D3D1D0CFCDCCCBCAC858
:10553000C7C6C5C4C2C1C0BFBEBDBCBBBAB9B8B77F
:10554000B6B5B4B3B2B1B0AFAEADACABAAA9A8A872
:10555000A7A6A5A4A3A3A2A1A09F9F9E9D9C9C9B40
:105560009A999998979796959594939392919190EB
:105570008F8F8E8E8D8C8C8B8B8A8989888887877C
:105580008685858484838382828181800000FF07F1
:105590000000F87F51EA030C17D41CF5801F58BF98
:1055A000BCF5801F00F10680994218BF704708BF04
:1055B0009042704707D711F5801F58BF13F5801F21
:1055C00019D499427047894270471CF5801F08D54D
:1055D000BCF5801FF7D58B4218BF704708BF8242C9
:1055E00070474FF4001C1CEB410F38BF1CEB430FFE
:1055F00001D28B42704770B500F046F99224490001
:105600004FF000514FF08053FFF760BE4FEA115347
:10561000A3F58063D3F11E03A8BFD3F1200C08DBF0
:105620004FF0004242EAC12252EA505232FA03F0ED
:10563000704709420BD4102BC4BF0020704703F5FC
:10564000787CBCF1FF3F05D04FF0FF3070474FF042
:105650000000704770B500F017F900BF4992248030
:1056600000207047F0E710F0004248BF4042B0FA17
:1056700080F310FA03F10AD0C3F11D0303F5806330
:105680004FEA415002EB035202EBD12170474FF039
:1056900000007047B0FA80F310FA03F10AD0C3F1AA
:1056A0001D0303F580634FEA41504FEA035202EBBA
:1056B000D12170474FF000007047000051EA030C01
:1056C00017D41CF5801F58BFBCF5801F00F1068061
:1056D000994218BF704708BF9042704707D711F52D
:1056E000801F58BF13F5801F19D499427047894213
:1056F00070471CF5801F08D5BCF5801FF7D58B427D
:1057000018BF704708BF824270474FF4001C1CEB63
:10571000410F38BF1CEB430F01D28B42704770B56D
:1057200000F0B2F8922449004FF000514FF080533E
:10573000FFF7CCBDDFF848C170B51CEA111E1EBFD3
:105740001CEA13159EEA0C0F95EA0C0F00F06F800F
:1057500081EA030423EA4C134EEAD47E21EA4C1179
:1057600041F4801143F48013AE44A1FB024CA0FB32
:105770000365AEF17F7E361955EB0C05A1FB034C9A
:105780004CF10003A0FB021C16EB0C06654153F123
:105790000003094218BF46F0010613F4007F0BD145
:1057A0004FEA03314FEA0530340341EA155140EA2C
:1057B00016506FF003020AE04FEAC3214FEAC520FA
:1057C000F40241EA555140EA56506FF0020202EBF2
:1057D0002E4201EB025585EACE710AD05FEA440CF5
:1057E00018BF24F0004450F1000041F1000120EA0C
:1057F000D47040F2FE7C624500D270BDA84214BF56
:105800004FF080444FF04044002E08BF0024BEF10A
:10581000806FA8BFA1F1C041BDE8704080F28280D6
:105820004FF0000001F1C04101F0004170479EEAD5
:105830000C0F0CEA131518BF95EA0C0F06D04FF0A9
:10584000000081EA030E0EF0004170BD00F01CF86C
:105850008900013E00F007B800F009B84FEA430C98
:105860005FEA5C5C08D081EA030100F05BB84FEAB4
:10587000410C5FEA5C5CF6D14FF0000001497047D3
:105880000000FF070000F87F0EF1020E2EF0030E5D
:105890005EF8046B364205D4012A43EB030515F587
:1058A000001F12D8012841EB010C1CF5001F0CD879
:1058B0000ED14FEAD17C15F5001F0CEB4C0C0CF10E
:1058C000020C08BF4CEBD37C04E04FF0080C01E065
:1058D0004FEAD37C0CEB4C0526FA05F606F00706DA
:1058E000B6F1040C06D20EEB860CBDE870404CF00D
:1058F000010C6047DFE80CF0090B02024FF0004199
:105900004FF00000A1F5002170BD19461046012896
:1059100051EB010418BFD4F5001484BF002001F03E
:10592000004170BD0808A0F500114FEA3101704731
:1059300053EA010C17D41CF5801F58BFBCF5801F1B
:1059400000F106808B4218BF704708BF8242704743
:1059500007D713F5801F58BF11F5801F19D48B424C
:1059600070479B4270471CF5801F08D5BCF5801F0F
:10597000F7D5994218BF704708BF904270474FF45F
:10598000001C1CEB430F38BF1CEB410F01D29942A6
:1059900070470FB40CBC03BCFFF7C1BE91EA030F04
:1059A00010B581F000413FF5E9AB83F0004300F012
:1059B000EFB800002DE9F04101F5801CBCF5001F97
:1059C000C0F2C3804FEA115C21EA0C510CF1FD0CCE
:1059D00041F480115FEA5C0C0CF5C07C01D34000FF
:1059E00049413DA4890241EA905187028E0E0A0C7A
:1059F000A45D04FB04F602FB06F6C6F14046A4FBD8
:105A00000662F60D46EA422606FB06F4A4FB0123D5
:105A10005242C3F1404338BF5B1EA6FB0242002442
:105A2000E6FB0324D20B42EA4446A6FB0623A1FB75
:105A300002E2A3FB07E4A4184FF0000252F10002B7
:105A4000E3FB01426442C2F1404E38BFAEF1010EA9
:105A5000A6FB04234FF00002E6FB0E32A2FB034636
:105A60004FF00004B61954F10004E2FB0264A1FBFC
:105A700006E6A4FB07E816EB08064FF0000858F10D
:105A80000008E4FB01687642C8F1405838BFA8F12D
:105A90000108A2FB06E4A3FB08E52D194FF0000462
:105AA00054F10004E2FB0854A1FB05E6A7FB04E85F
:105AB00018EB06084FF0000656F10006E1FB0486DD
:105AC00018F1200556F10006A809A8F11B08B10934
:105AD00008F03F08B8F10A0F40EA86601CD901EBD4
