:020000040800F2
:100000008808002089010008052200088D170008D3
:1000100015210008B1020008B52500080000000005
:100020000000000000000000000000002F22000877
:10003000E9020008000000002D22000853220008F9
:10004000A3010008A3010008A3010008A301000800
:10005000A3010008A3010008A3010008A3010008F0
:10006000A3010008A3010008A3010008A3010008E0
:10007000A3010008A3010008A3010008A3010008D0
:10008000A3010008A3010008A3010008A3010008C0
:10009000A3010008A3010008A3010008A3010008B0
:1000A000A3010008A3010008A3010008A3010008A0
:1000B000A3010008A3010008A3010008A301000890
:1000C000A3010008A3010008A3010008A301000880
:1000D000A3010008A3010008A3010008A301000870
:1000E000A3010008A3010008A301000800F002F822
:1000F00000F03AF80AA090E8000C82448344AAF188
:100100000107DA4501D100F02FF8AFF2090EBAE885
:100110000F0013F0010F18BFFB1A43F0010318473B
:100120004836000068360000103A24BF78C878C10D
:10013000FAD8520724BF30C830C144BF04680C60ED
:10014000704700000023002400250026103A28BF35
:1001500078C1FBD8520728BF30C148BF0B60704739
:100160001FB51FBD10B510BD00F06CF81146FFF7AC
:10017000F7FF02F079FB00F08AF803B4FFF7F2FF13
:1001800003BC00F08FF80000094880470948004789
:10019000FEE7FEE7FEE7FEE7FEE7FEE7FEE7FEE737
:1001A000FEE7FEE704480549054A064B7047000094
:1001B000B5220008ED000008880200208808002011
:1001C00088040020880400204FF0000200B5134688
:1001D00094469646203922BFA0E80C50A0E80C5067
:1001E000B1F12001BFF4F7AF090728BFA0E80C5018
:1001F00048BF0CC05DF804EB890028BF40F8042B11
:1002000008BF704748BF20F8022B11F0804F18BF7D
:1002100000F8012B704770477047704710B500F029
:1002200009F8006810BD10B5044600F003F804603A
:1002300010BD0000004870472802002000487047A9
:10024000280200207546FFF7F9FFAE460500694613
:10025000534620F00700854618B020B5FFF7A2FFEF
:10026000BDE820404FF000064FF000074FF00008B7
:100270004FF0000B21F00701AC46ACE8C009ACE838
:10028000C009ACE8C009ACE8C0098D46704710B59C
:100290000446AFF300802046BDE81040FFF76DBF75
:1002A0007047000001491820ABBEFEE7260002009F
:1002B000FEE7000070B54FF0FF320023094D0CE05F
:1002C000C45C62400024D60702D085EA520200E0F6
:1002D0005208641C082CF6DB5B1C8B42F0D3D04325
:1002E00070BD00002083B8ED704701600A68526A53
:1002F00082800022C28008463C2101F085B80000BF
:100300007FB50C4B14460D4606460FCB8DE80F000B
:100310000C216846FFF7CEFF0399814202D00020EE
:1003200004B070BD00983060019828600298206089
:100330000120F5E700FC00082DE9F84FDFF8B8913F
:100340000024A9F1040B23460F2709F1040AABF19D
:10035000040EC9E00125A5402A40AA427DD1674E7E
:10036000D1F804C0ACEB0608B44532D014DCBCF1C3
:10037000030F3AD009DCBCF1000F2AD0BCF1010F09
:100380001CD0BCF1020F31D11DE0BCF1110F17D010
:10039000BCF1120F2AD119E0B8F5881F19D006DC7C
:1003A000B8F5803F15D0B8F5801F1FD111E0B8F522
:1003B000001F0ED0B8F5041F18D10AE0CB6815E075
:1003C000CB681B1D12E0CB6808330FE0CB680C3301
:1003D0000CE08B682BB1012B4FF0080303D0456173
:1003E00004E0042302E0056100E00023FF2A01D8B5
:1003F000064601E000F104064FEA840501D9A5F1A3
:100400002005D6F8008007FA05FC28EA0C0803FA54
:1004100005F548EA0508C6F800804D68ED0062D58C
:10042000374DAE6946F00106AE61AD6924F00306B2
:1004300005F001050095334D06EB050CDCF808507E
:10044000A607360F07FA06F825EA0805DFF8B88090
:10045000404503D14FF0000817E044E0DFF8AC80DE
:10046000404502D14FF001080FE0DFF8A48040457D
:1004700002D14FF0020808E0DFF89880404502D131
:100480004FF0030801E04FF0040808FA06F848EAC4
:100490000508CCF808804D68D9F80060ED024D469B
:1004A00001D5164300E096432E604D68DAF80060EF
:1004B000AD02554601D5164300E096432E604D68C7
:1004C000DBF80060AD035D4601D5164300E09643BE
:1004D0002E604D68DEF80060ED03754601D51643C9
:1004E00000E096432E60641C0D682A46E5407FF4C8
:1004F00031AFBDE8F88F0000080401400000111082
:10050000001002400000014000080140000C0140C2
:1005100000100140001401400AB101617047090454
:10052000FBE7000001488068704700001C000020C5
:1005300070B5040025D094F83D00002520B984F85A
:100540003C50204600F07EFA242084F83D002068CC
:10055000016821F0010101602068016841F4004157
:1005600001602068016821F40041016000F0C2FBD5
:100570004D4A6168914201D84C4900E04C4988429B
:1005800001D2012070BD4B492368B0FBF1F15E68D8
:1005900026F03F060E435E606368934206D94FF42F
:1005A000967359434FF47A73B1FBF3F12368491CF6
:1005B0001E6A26F03F06314319626168914210D8E5
:1005C0004900401EB0FBF1F2521CC2F30B02042A98
:1005D00001D2042022E0B0FBF1F0401CC0F30B007C
:1005E0001CE0A268F2B301EBC10303EB0116431E4A
:1005F000B3FBF6F35B1C43F480431B0549D092B375
:1006000001EBC10202EB0111401EB0FBF1F0401CF6
:10061000C0F30B0040F4804040F400402168CA69F8
:100620004CF6FF739A431043C861D4E907100143A5
:100630002068026822F0C00211430160D4E903017E
:1006400001432068826848F2FF339A431143816076
:10065000D4E9050108432168CA6822F0FF0210436B
:10066000C86001E00EE016E02068016841F0010179
:1006700001602564202084F83D00256384F83E5005
:10068000002070BD01EB4106431EB3FBF6F35B1C7B
:10069000B3E70120C2E701EB4101401EB0FBF1F0DE
:1006A000401CC0F30B00B7E7A086010080841E0049
:1006B00000093D0040420F002DE9FF4F83B00025A7
:1006C000DDE910799A4693460446DDF848800095A6
:1006D000FFF728FF064694F83D0020287CD1192317
:1006E000012288492046009601F066F90028F5D1DC
:1006F00094F83C0001286FD0012084F83C00206869
:100700000168C90703D1016841F001010160206857
:10071000016821F400610160222084F83D0040203E
:1007200084F83E0025646762A4F82A90608D2085D5
:100730007548E062CDE9008653465A462046049942
:1007400001F03CF800287CD1208DDFF8C0912027F3
:1007500068B1012814D00228206801681ED041F435
:10076000806101602068416980690090BCE0206878
:10077000416981690091016841F400710160B3E051
:100780002068016821F48061016072B620684169C7
:1007900081690091016841F400710AE041F400614F
:1007A000016072B62068416981690091016821F495
:1007B0008061016062B697E0032865D801280CD0FB
:1007C000022843464FF000024946204600960BD0CF
:1007D00001F0F2F8A8BB0CE091E032464146204619
:1007E00001F090F968BB72E001F0E6F848BB72B620
:1007F00033E02068016821F48061016072B62068EE
:100800000069616A0870606A401C6062208D401E49
:100810002085608D401E60853D4846F2A811006825
:10082000B0FBF1F0C0EBC00000EB80000090401E78
:10083000009007D020684069C04340070DD500985C
:10084000F5E727E044F8305F6773A573206940F04F
:100850002000206162B625731CE02068016841F425
:100860000071016020680069616A0870606A401C5C
:100870006062218D491E2185618D491E618562B6A8
:1008800021680969017026E032464146204601F0A0
:1008900039F918B1012007B0BDE8F08F2068006970
:1008A000616A0870606A401C6062208D401E81B2DF
:1008B0002185608D401E608520684269D2435207C1
:1008C00012D4032903D1016821F4806101602068FA
:1008D0000069616A0870606A401C6062208D401E79
:1008E0002085608D401E6085208D00287FF464AFD8
:1008F00084F83D7084F83E5084F83C50CBE70220E9
:10090000C9E70000020010000000FFFF0400010022
:10091000280000202DE9FF4F83B09A46DDE91197AA
:1009200093460446DDF84080FFF7FCFD054694F849
:100930003D0020287FD119230122404920460095FF
:1009400001F03AF8002876D194F83C00012872D0E2
:10095000012084F83C0020680168C90703D10168C0
:1009600041F0010101602068016821F4006101602B
:10097000212084F83D00402084F83E0000262664B3
:10098000C4F82480A4F82A90608D20852C48E06269
:10099000CDE9007553465A462046049900F08CFF75
:1009A00070B930E02A463946204601F0E3F858B1E4
:1009B000206C042804D12068016841F400710160B2
:1009C000012007B0BDE8F08F606A216800780861F7
:1009D000606A401C6062218D491E89B22185628D4A
:1009E000521E628522685369DB435B070BD469B1F1
:1009F00000781061606A401C6062208D401E208576
:100A0000608D401E6085208D0028CBD12A46394656
:100A1000204600F0A5FF0028CAD154F83D0B01681C
:100A200041F400710160202004F81E09E677667722
:100A30000020C6E7FFE70220C3E700000200100025
:100A40000000FFFF10B586B00021009101910291D6
:100A5000039100681349884222D1134CA06940F0E9
:100A60000800A061A069694600F0080004904FF4F6
:100A70004070009012200190032003900B48FFF774
:100A80005BFC0B48416841F0E06141F002014160CC
:100A9000E06940F40010E061E06900F400100490A7
:100AA00006B010BD0054004000100240000C014090
:100AB000000001400248816802781144816070475B
:100AC0001C000020074810B5016841F010010160CA
:100AD000032000F067F80F2000F006F800F024F87B
:100AE000002010BD0020024070B50D4D04464FF4AB
:100AF0007A712878B1FBF0F00A490968B1FBF0F08F
:100B000000F0CEFA48B9102C07D200222146501E20
:100B100000F028F800206C6070BD012070BD00005E
:100B20001C000020280000200C4808B5816941F015
:100B300001018161816901F001010091C16941F008
:100B40008051C161C06900F0805000900448416844
:100B500021F0E06141F00071416008BD00100240E9
:100B600000000140F0B40E4B1B680C46C3F3022397
:100B7000C3F10705042D00D90425191D072901D249
:100B8000002300E0DB1E012606FA05F1491E214084
:100B900099409E40761E16403143F0BC01F01EBDC8
:100BA0000CED00E0064900F0070208684FF6FF036D
:100BB000184040EA0220034A1043086070470000D2
:100BC0000CED00E00000FA052DE9F0470F460500A6
:100BD00061D0434E306800F00700B84209D2306857
:100BE00020F0070038433060306800F00700B8425A
:100BF00051D128683B4C810712D5400703D5606866
:100C000040F4E06060602878000703D5606840F435
:100C1000605060606068A96820F0F0000843606080
:100C20002878C00728D06868012810D021680228D9
:100C300010D0890700292EDA616821F003010143F1
:100C40006160FFF76FFC804641F288390DE0216852
:100C50008903EFE78901EDE7FFF764FCA0EB0801EA
:100C6000494502D90320BDE8F0876068696800F053
:100C70000C00B0EB810FEFD1306800F00700B842F4
:100C80000BD9306820F0070038433060306800F03E
:100C90000700B84201D00120E5E72878400705D5D4
:100CA0006068E96820F4E060084360602878000725
:100CB00006D56068296920F4605040EAC100606090
:100CC00000F038F86168084AC1F30311515CC8406C
:100CD0000649086006480068FFF706FF0020C2E7E3
:100CE0000020024000100240503700082800002079
:100CF000200000200448054900684968044AC1F3FF
:100D00000221515CC84070472800002000100240BA
:100D1000603700080448054900684968044AC1F37F
:100D2000C221515CC84070472800002000100240DA
:100D3000603700080E4A51680E4801F00C03042B7E
:100D400011D0082B0FD10C48C1F38343C903C05CF9
:100D50000AD55168084AC1F34041921E515C054AC8
:100D60005043B0FBF1F0704704494843704700001E
:100D70000010024000127A004037000800093D00D0
:100D80002DE9F84F040070D02078C04DC00749D03D
:100D90006868C0F38100012807D06868C0F381004B
:100DA000022809D16868C00306D52868800339D5B0
:100DB00060680028E7D035E06068B0F5803F0BD070
:100DC00010B1B0F5A02F11D0286820F48030286031
:100DD000286820F4802002E0286840F480302860F1
:100DE000606890B1FFF79EFB06460AE0286840F471
:100DF00080202860F0E700BFFFF794FB801B642889
:100E000073D828688003F7D50CE0FFF78BFB064604
:100E100005E000BFFFF786FB801B6428F0D8286838
:100E20008003F7D420789A4E80074FF001094FF0E5
:100E3000000839D5686810F00C0F07D06868C0F357
:100E40008100022809D16868C00306D42868800799
:100E500014D52069012808D110E02069B0B1C6F886
:100E60000090FFF75FFB074605E00AE1FFF75AFB3A
:100E7000C01B0228C4D828688007F7D52868616994
:100E800020F0F80040EAC10028600DE0C6F80080BC
:100E9000FFF748FB074604E0FFF744FBC01B0228AE
:100EA00023D828688007F7D4207800072CD5794804
:100EB000A169D9B1C0F80090FFF734FB074604E000
:100EC000FFF730FBC01B02280FD8686A8007F7D5F0
:100ED00071484FF4FA510068B0FBF1F0009000BF88
:100EE0000098411E0091FAD20EE080E0C0F8008028
:100EF000FFF718FB074604E0FFF714FBC01B0228AE
:100F000075D8686A8007F7D42078400760D5E8690B
:100F10000027C00008D4E86940F08050E861E86923
:100F2000012700F0805000905C480168C90513D487
:100F30000168834641F480710160FFF7F3FA82464D
:100F400006E000BFFFF7EEFAA0EB0A0064284ED8D7
:100F5000DBF80000C005F5D5E06801280AD008B12B
:100F6000052813D0286A20F001002862286A20F0A2
:100F7000040002E0286A40F001002862E06841F2C3
:100F8000883B98B1FFF7CEFA82460BE0286A40F022
:100F900004002862EEE700BFFFF7C4FAA0EB0A01E5
:100FA00059455AD8286A8007F6D50CE0FFF7BAFAF7
:100FB000824605E0FFF7B6FAA0EB0A0159454CD886
:100FC000286A8007F6D41FB1E86920F08050E861F4
:100FD000E06988B36968C1F38101022944D002281D
:100FE000C6F8608004D0FFF79DFA044638E034E08C
:100FF000FFF798FA074604E0FFF794FAC01B0228AF
:101000002BD828688001F7D4206AB0F5803F05D13D
:101010006868A16820F4003008436860D4E90801DA
:101020000843696821F4741108436860C6F8609049
:10103000FFF778FA044606E025E000BFFFF772FAF2
:10104000001B022809D828688001F7D51BE000BFE3
:10105000FFF768FA001B022802D90320BDE8F88FC9
:1010600028688001F4D40EE00128F7D06868226A6D
:1010700000F48031914204D1616A00F4701088421A
:1010800001D00120EAE70020E8E70000001002405C
:1010900000004242800442422800002000700040CC
:1010A00010B5401EB0F1807F01D3012010BD4FF07C
:1010B000E02460610F21601701F090FA0020A06128
:1010C00007202061002010BD10B590F83C20012AB7
:1010D00022D0012280F83C20CA688C6822F4407239
:1010E00022434C6822F4806222430C6822F400629E
:1010F00022430C6922F4805222434C6922F40052AC
:101100002243C969002322F480420A4301684A64E9
:1011100080F83C30002010BD022010BD70B590F862
:101120003C20012A26D0012480F83C40022280F88D
:101130003D2003685A689D6822F070060A683243B1
:101140005A600D4B02689A4208D0B2F1804F05D028
:101150000A4B9A4202D00A4B9A4204D1496825F0C0
:1011600080031943916080F83D40002180F83C10D5
:10117000084670BD022070BD002C014000040040F4
:101180000008004010B5040003D094F83D0010B1F1
:1011900007E0012010BD002084F83C00204600F04C
:1011A0001FF8022084F83D00211D206801F084F81A
:1011B000012084F8460084F83E0084F83F0084F85B
:1011C000400084F8410084F8420084F8430084F829
:1011D000440084F8450084F83D00002010BD000064
:1011E00008B500680649884208D10648816941F47B
:1011F00000618161806900F40060009008BD00001A
:10120000002C01400010024070B5044690F83C00EC
:101210000025012817D0012684F83C60022084F8BC
:101220003D002068826822F0770222F47F428260CB
:101230000868502838D00DDC20284FD005DC90B34A
:10124000102811D14AE0022070BD302846D0402835
:101250000AD13BE060282FD070280DD0B0F5805F18
:1012600003D0B0F5005F12D0012584F83D60002066
:1012700084F83C00284670BDCB68D1E90121206884
:1012800001F063F82068816841F0770109E0CB68DC
:10129000D1E90121206801F058F82068816841F403
:1012A00080418160E1E719E0CA684968206801F07F
:1012B00001F95021206806E0CA684968206801F0F9
:1012C0000AF96021206801F04AF8CEE7CA68496847
:1012D000206801F0EFF840212068F4E72268014619
:1012E0001046F0E72DE9F0410D46040003D094F8D4
:1012F0003D0018B108E00120BDE8F081002084F82D
:101300003C00204600F040F8022084F83D002068B0
:10131000816844F2070291438160211D206800F03A
:10132000CBFF226890689169166A2B68AF69034306
:1013300040F20330814341EA0721A868EF6908437E
:101340004FF6FC418843E96840EA072001432869D9
:101350002F6A000140EA0730084369686D6926F08A
:10136000220646EA0515294393602268906154F8E5
:10137000460B0162012004F81F09E0752076E07633
:101380002077A0750020B7E700B585B00021009157
:10139000019102910391026818491948B2F1804FF6
:1013A00019D0184B9A4214D1CA6942F00202CA619C
:1013B000CA6902F0020204928A6942F004028A6158
:1013C000896901F004010491C02100916946FEF78A
:1013D000B3FF05B000BDCA6942F00102CA61CA6923
:1013E00002F0010204928A6942F004028A6189696A
:1013F00001F0040104910321E7E70000001002401E
:10140000000801400004004070B590F83E600446BA
:1014100090F83F5090F8423090F84320022021B1DC
:1014200004290ED0012E1BD114E0012E18D1012B5E
:1014300016D184F83E0084F8420001220021206881
:1014400020E0012D0CD1012A0AD184F83F0084F854
:10145000430014E0012D03D1012B01D1012A01D059
:10146000012070BD84F83E0084F83F0084F84200FB
:1014700084F8430001220021206800F059FF012276
:101480000421206800F054FF2068016841F0010148
:101490000160002070BD000000B585B00021009102
:1014A00001910291039100680B49884212D10B48C7
:1014B000816941F0040181618069694600F004009E
:1014C00004904FF440700090022001900390044873
:1014D000FEF732FF05B000BD002C014000100240B5
:1014E0000008014070B5044690F83C0000260D4607
:1014F00001280FD0012084F83C006AB1042A1DD0D5
:10150000082A2FD00C2A3FD00126002084F83C0066
:10151000304670BD022070BD206800F029FF2068B1
:10152000816941F0080181612068816921F004012D
:101530008161206881692A69114311E0206800F007
:101540003FFF2068816941F4006181612068816901
:1015500021F480618161206881692A6941EA022160
:101560008161D2E7206800F057FF2068C16941F02F
:101570000801C1612068C16921F00401C1612068CE
:10158000C1692A69114311E0206800F071FF2068E9
:10159000C16941F40061C1612068C16921F48061C1
:1015A000C1612068C1692A6941EA0221C161ACE7D1
:1015B00010B5040003D094F83D0010B107E00120FD
:1015C00010BD002084F83C00204600F01EF80220E8
:1015D00084F83D00211D206800F06EFE012084F893
:1015E000460084F83E0084F83F0084F8400084F808
:1015F000410084F8420084F8430084F8440084F8F1
:10160000450084F83D00002010BD704710B5044629
:10161000022249B104290ED0082913D094F84100C0
:10162000012816D0012010BD94F83E000128F9D100
:1016300084F83E200FE094F83F000128F2D184F8AE
:101640003F2008E094F840000128EBD184F84020C6
:1016500001E084F841200122206800F069FE0F4972
:101660002068884203D1426C42F400424264206800
:10167000884208D0B0F1804F05D00949884202D095
:101680000849884204D1816801F00701062903D086
:10169000016841F001010160002010BD002C0140F3
:1016A000000400400008004070B5040004D094F825
:1016B0004100002510B106E0012070BD84F84050C3
:1016C000204600F023F8242084F841002068C168F7
:1016D00021F40051C160204600F010FF206801692C
:1016E00021F4904101612068416921F02A014161A2
:1016F0002068C16841F40051C1606564202084F80D
:10170000410084F842006563002070BD30B585B0AB
:1017100000240094019402940394006817498842BD
:101720002AD11748816941F480418161816901F4BE
:1017300080410491816941F0080181618069114D06
:1017400000F0080004904020009002200190032047
:10175000039069462846FEF7EFFD8020CDE900049E
:10176000694628460294FEF7E7FD0748416841F0C4
:10177000E06141F00401416005B030BD0038014036
:1017800000100240000C014000000140FEE701682B
:101790004A69D24352050FD46FF480624A61002136
:1017A00040F8301F202242738173026942F0040224
:1017B0000261017301207047002070472DE9F84F46
:1017C0000446006889460B9D01689846174641F417
:1017D000806101602068016841F4807101600095BA
:1017E0004FF0011B0022594620460A9B00F0E4F806
:1017F0004FF4007A40B120680068C00501D5C4F8F4
:1018000040A00320BDE8F88F216809F0FE000861C0
:101810002B46284920460A9A00F016F9F0BB2068AA
:101820004169806900902A4620460A9900F0A2F991
:1018300040B1206C04283AD12068016841F400715D
:10184000016034E0FEB2B8F1010F09D02168380A16
:1018500008612A4620460A9900F08CF90028E8D150
:10186000206806612A4620460A9900F083F900287C
:10187000DFD12068016841F4807101600095002289
:10188000594620460A9B00F097F80028B3D12168FA
:1018900009F0FF0040F00100086100E007E02B467E
:1018A000044920460A9A00F0CFF80028AAD0012067
:1018B000A8E70000020001002DE9F8430446006893
:1018C0000D46DDE9089701689846164641F4807197
:1018D00001604B4600224FF001112046009700F0B6
:1018E0006BF848B120680068C00502D54FF400705D
:1018F00020640320BDE8F883216805F0FE0008613C
:101900003B464A461549204600F09EF888B92068B3
:101910004169806900903A464946204600F02AF91C
:1019200048B1206C042804D12068016841F400719A
:1019300001600120DEE7F5B2B8F1010F09D021689E
:10194000300A08613A464946204600F013F900285B
:10195000E7D1206805610020CCE70000020001000B
:1019600070B516460D4604461EE02046FFF70FFFF1
:1019700008B1012070BD681C16D0FEF7D3FD801B96
:10198000A84200D885B920684069C04340070BD5FC
:10199000002044F8300F20216173A073216941F0C9
:1019A000200121612073E4E720684069C0434007BB
:1019B000DBD4002070BD00002DE9F04798461746A3
:1019C0000D460446C1F30746DDF820902AE000BF2B
:1019D000B8F1FF3F26D0FEF7A5FDA0EB0901414578
:1019E00002D8B8F1000F1DD12068012E16D08069F1
:1019F00025EA00000004000C12D00020B84211D1EA
:101A0000002044F8300F20216173A073216941F058
:101A10002001216120730120BDE8F0874069E7E7DC
:101A20000120EBE72068012E0AD0806925EA00003A
:101A30000004000C06D00020B842C9D00020EBE71B
:101A40004069F3E70120F7E72DE9F047984616468D
:101A50000D4604464FF000094FF0200AC1F3074736
:101A600023E020684069C043400515D42068016820
:101A700041F40071016021686FF480604861C4F82E
:101A8000309084F83DA084F83E90216C41F0040130
:101A9000216484F83C9021E0701C06D0FEF742FDE2
:101AA000A0EB0800B04203D816B1012F1FD021E0EF
:101AB0002068012F15D0806925EA00000004000C81
:101AC00018D000BF44F8309F84F80DA084F80E9021
:101AD000216941F02001216184F80C900120BDE8CA
:101AE000F087406925EA00000004000CEAD1206874
:101AF000406901E02068806925EA00000004000CCC
:101B0000AFD1ECE72DE9F041002590460E460446A2
:101B1000202728E04069C043C0060CD454F8301B8D
:101B20006FF01000486144F810596777A577206A74
:101B30002062257714E0FEF7F5FCA0EB0800B04228
:101B400000D886B920684069C04340060BD544F8E8
:101B5000305F6773A573206940F020002061257312
:101B60000120BDE8F08120684169C9434906D1D40C
:101B70000020F6E770B516460D4604461EE02046E6
:101B8000FFF705FE08B1012070BD681C16D0FEF7F6
:101B9000C9FC801BA84200D885B920684069C043B1
:101BA00000060BD5002044F8300F20216173A0738C
:101BB000216941F0200121612073E4E72068406938
:101BC000C0430006DBD4002070BD0000064A02605E
:101BD000064A4260064AC0E9022100210161816192
:101BE000C1610162416270476F12833AA69B443B18
:101BF0008FC2F53C2DE9FF4F044683B00069019088
:101C00000146104601F0B6FC01466061069801F0FD
:101C100053FBE16801F0DEF9D4F824A08146514677
:101C2000069801F049FBE6698346314601F0A2FCC3
:101C3000256A294601F09EFC216801F0CBF906993E
:101C400001F03AFBA16901F0C5F9804658463146DA
:101C500001F0FEFB07465846294601F0F9FB834692
:101C60006068069901F028FB514601F0B3F98246FD
:101C70004946049801F07EFC00904046A16801F0BE
:101C8000A9F906460146404601F00CFA05463146E0
:101C9000584601F007FA06462846009901F00CFB69
:101CA000494601F097F9E06081463046009901F01D
:101CB00003FB019901F08EF920612846414601F0AD
:101CC000FBFA414601F0C4FBA0612846394601F009
:101CD000F3FA394601F0BCFBE0613046414601F0C1
:101CE000EBFA594601F0B4FB20623046394601F068
:101CF000E3FA514601F0ACFB606207B04846BDE82C
:101D0000F08F80697047C0697047F0B585B00746AD
:101D1000012504A8CDE900054FF0FF342B467522BC
:101D2000D02102943846FEF7C7FC9DF810006828C1
:101D300002D0012005B0F0BD00208DF80C0003AEEC
:101D40000096CDE9015401236B22D0213846FEF7DD
:101D5000E1FD08208DF80C000096CDE90154012327
:101D60001C22D0213846FEF7D5FD18208DF80C0036
:101D70000096CDE9015401231B22D0213846FEF7FD
:101D8000C9FD0020D6E700002DE9F04788B00C46D9
:101D90004FF0FF330E2203A98DE80E0001233B22F2
:101DA000D021FEF789FCBDF80E10BDF80C0049BA31
:101DB0000EB2BDF8101040BA49BA0DB2BDF81410F9
:101DC00000B249BA0FB2BDF8161049BA0FFA81F93C
:101DD000BDF8181049BA0FFA81F801F041FA6FF016
:101DE0000C0A514601F06DFC2060304601F038FAD3
:101DF000514601F066FC06466060284601F030FA64
:101E0000514601F05EFC0546A060384601F028FA14
:101E1000244F394601F046F9E060484601F020FAC7
:101E2000394601F03FF92061404601F019FA394680
:101E300001F038F960612946304600F0E7FB1A4DA1
:101E4000294601F039FA01F099F8184E184F324638
:101E50003B4600F00FFE00F0DBFDA061A0680146EC
:101E600001F02AFA80466068014601F025FA4146F1
:101E700001F0B0F800F0B6FD0146206880F00040A7
:101E800000F0C4FB294601F017FA01F077F832465A
:101E90003B4600F0EFFD00F0BBFDE06108B0BDE89F
:101EA000F08700003333834100003443182D44543D
:101EB000FB2109402DE9F04385B00024254800941A
:101EC000019402940394816941F020018161816948
:101ED00001F020010491816941F00401816181696F
:101EE00001F004010491816941F008018161806978
:101EF000DFF8648000F008004FF4005504900022E1
:101F000029464046FEF708FBDFF850904FF4406743
:101F1000002239464846FEF7FFFA6810CDE9000472
:101F2000694640460294FEF707FA0095022601250D
:101F30000396CDE9015469464046FEF7FDF9009746
:101F40000396CDE9015469464846FEF7F5F905B018
:101F5000BDE8F08300100240000C01400008014081
:101F600010B596B000240F94109411941294139409
:101F70001C2168461494FEF727F9202107A8FEF7D4
:101F800023F92C482A4901604721C0E90114632143
:101F9000C0E903148021C0E90541FFF7F3F808B157
:101FA00072B6FEE74FF480500F900FA92148FFF75B
:101FB0002BF908B172B6FEE71E48FFF7F9FA08B12F
:101FC00072B6FEE7139413A91A481494FFF7A6F803
:101FD00008B172B6FEE76020CDE9000402940394D4
:101FE000049405940022694612480694FFF77AFA91
:101FF00008B172B6FEE7042269460E48FFF772FA8E
:1020000008B172B6FEE70794089409944FF40050A3
:102010000A94CDE90B4007A906480E94FFF754F83F
:1020200008B172B6FEE70348FFF736FA16B010BDE6
:10203000002C01408400002010B58CB0242168469B
:10204000FEF7C2F80024164809944FF080410A9424
:10205000C0E900144FF6FF71C0E90241802104611C
:1020600081610320CDE9000401200A21CDE90204A9
:102070000491CDE905400794694609480894FFF7A3
:1020800031F908B172B6FEE7099409A904480A9427
:10209000FFF744F8002801D072B6FEE70CB010BD7F
:1020A000CC00002010B58CB024216846FEF78CF8D7
:1020B00000241748099415490A94C0E900144FF602
:1020C000FF71C0E902418021046181610320CDE9F3
:1020D000000401200A21CDE902040491CDE9054064
:1020E000079469460A480894FFF7FCF808B172B6ED
:1020F000FEE7099409A906480A94FFF70FF800289B
:1021000001D072B6FEE70CB010BD00000004004024
:1021100014010020FEE7000000B585B00020029009
:102120000B48816941F0040181618069694600F0D2
:10213000040004904FF440600090012001900220C0
:1021400003900448FEF7F8F800F078F805B000BDF9
:10215000001002400008014070B50C460D4D4FF4D0
:102160000061012801D0022801D0002200E00122F4
:102170002846FEF7D1F94FF48061012C01D0022CE2
:1021800001D0002200E001222846BDE87040FEF7A1
:10219000C3B90000000801402DE9F0410C46064695
:1021A00000F0ECFE144F21F0004100223B4600F00D
:1021B000E7FD00F0B7FD85B2204600F0DFFE21F01C
:1021C000004100223B4600F0DBFD00F0ABFD0B4977
:1021D00080B20A6855630968886309498E4201D252
:1021E000012000E002208C4201D2012100E0022106
:1021F000BDE8F041FFF7B0BF00388F4084000020F9
:1022000000008080FEE780E80E000021C1600161CF
:1022100070473EB5044602AA01A96846FEF770F869
:102220009DE80E002046FFF7EEFF3EBD7047704769
:1022300001490120087070472C00002010B50021D2
:102240000846FFF7A9FF0021BDE810400846FFF748
:1022500083BFFEF72FBC30B58FB028216846FDF74D
:10226000B3FF14210AA8FDF7AFFF01210804CDE94F
:1022700000100024029402250491CDE907504FF488
:10228000E01009906846FEF77BFD08B172B6FEE7E4
:102290000F20CDE90A054FF48060CDE90C40022102
:1022A0000AA80E94FEF790FC002801D072B6FEE753
:1022B0000FB030BD70470000F0B50268194B1A4CE2
:1022C0001A4D4FF08047984205D0B84203D0A04243
:1022D00001D0A84203D122F070064A6832439842E6
:1022E00005D0B84203D0A04201D0A84203D122F4C5
:1022F0004074CA6822434C6922F080022243026083
:102300008A68C2620A688262984201D109690163DF
:10231000012141610169C90703D0016921F001016F
:102320000161F0BD002C01400004004000080040A5
:1023300010B501F01F030121046A99408C43046227
:10234000016A9A401143016210BD10B5846842EAE7
:10235000032224F47F440A432243826010BD826832
:1023600022F070020A4342F00701816070470000CA
:1023700030B5036A026A22F001020262426884698F
:1023800024F073050C682C4323F002058B682B4363
:102390000A4DA8420BD123F00805CB6822F4407205
:1023A0002B434D6923F0040315438A692A43426095
:1023B000846149684163036230BD0000002C014024
:1023C00030B5026A036A23F010030362436884692C
:1023D0000D6824F4E64444EA05248D6822F02002C6
:1023E00042EA05120B4DA8420ED1CD6822F08002C0
:1023F00042EA05124D6923F4406343EA85038D697F
:1024000022F0400243EA85034360846149688163A6
:10241000026230BD002C014030B5036A026A22F42A
:10242000807202624268C46923F4007324F0730569
:102430000C682C438D6843EA05230C4DA8420ED14D
:10244000CD6823F4006343EA05234D6922F440522A
:1024500042EA05128D6923F4806342EA0512426064
:10246000C4614968C163036230BD0000002C0140B3
:1024700030B5046A026A22F4805202624268C3697B
:102480000D6823F4E64343EA05238D6824F40054E1
:1024900044EA0534064DA84204D14D6922F4804235
:1024A00042EA85124260C36149680164046230BD3A
:1024B000002C014010B5036A046A24F00104046290
:1024C000846924F0F00444EA021423F00A020A4367
:1024D0008461026210BD10B5036A046A24F010041E
:1024E0000462846923F0A00324F4704444EA0232B5
:1024F00043EA01118261016210BD000070B504461B
:1025000000680169E26821F44051114301612169C9
:10251000A0680843616908432168CA6841F20C63F6
:102520009A430243CA6020684169A26921F440715C
:10253000114341611E492068884202D1FEF7EAFB3F
:1025400001E0FEF7D7FB00EBC00101EB0012606871
:1025500064218000B2FBF0F3B3FBF1F36FF01806D7
:102560007343B2FBF0F5B2FBF0F605EB83053223C3
:1025700003EB0515B5FBF1F5B6FBF1F605F0F0053B
:1025800005EB0615B2FBF0F6B2FBF0F0B0FBF1F094
:102590006FF01802504306EB800003EB0010B0FB15
:1025A000F1F0216800F00F002844886070BD000041
:1025B00000380140FEE74100080218BF04200A0E5F
:1025C00018BF40F001004FF07F4232EA010108BF1E
:1025D00040F00200012808BF052070470907090ED6
:1025E000002804DB00F1E02080F80014704700F0C0
:1025F0000F0000F1E02080F8141D704700F0EABCE5
:102600006FF05E01080701F05CB800002DE9F047AB
:102610004FF0684202EB40030C460546B3F1654FAC
:102620003CBF02EB4102B2F1654F7CD2C0F3C7530D
:10263000C1F3C7529A1A1B2A06DD10F0004F14BFCF
:1026400076487748BDE8F08712F11A0F17DA11F0D3
:10265000004F06D010F0004F0CBF72487248BDE822
:10266000F0872146284600F01DFD0446FFF7A3FF32
:10267000042808BFFFF7C4FF2046BDE8F0874200EA
:10268000B2EB410F25D910F0004F19BF674F684ECC
:10269000684F694E224685F0004415460A4680F090
:1026A000004110460A1A5200B2F1807F40D24840E1
:1026B0006249DFF88CA110F0004F18D04FF03F486E
:1026C000384600F057FF07465146304600F052FFAB
:1026D00017E011F0004F04BF00263746E2D010F09B
:1026E000004F19BF574F584E584F594EDAE74FF029
:1026F0007C58384600F06EFC07465146304600F0E4
:1027000069FC06464146284600F0D6FD214600F009
:1027100061FC82462146404600F0CEFD294600F08D
:1027200097FE514600E037E000F0BCFC044604E0B0
:102730002146284600F0B6FC0446014600F0BCFDE8
:102740008046444900F0B8FD434900F043FC41464F
:1027500000F0B2FD414900F03DFC414600F0ACFD07
:102760003F4900F037FC414600F0A6FD3D4900F02E
:1027700031FC05464146204600F09EFD294600F00A
:102780009BFD314600F026FC214600F023FC394633
:10279000BDE8F04700F01EBC4FF07F42B2EB400FA7
:1027A00028BFB2EB410F03D2BDE8F047FFF726BFC9
:1027B00040EA01035B0008BF44F0FF410AD0B2EBDE
:1027C000400F08BFB2EB410F06D125F0804024F046
:1027D000804105460C4629E7B2EB400F12BF5FEA85
:1027E000410245F0FF4004F000413FF41FAF4A00B2
:1027F00092EA40033FF51AAF002AACBF4FF09F4664
:102800004FF03E56314600F057FD05463146204612
:1028100000F052FD04462846214607E7DB0FC9BFFA
:10282000DB0FC93FDB0F4940DB0F49C00000C9BFC8
:1028300022AAFDB90000C93F22AAFD390060ED3E81
:10284000C30ACE37000049C022AA7DBA0000494021
:1028500022AA7D3A2DAD65BD8FB8D53D0FB511BE0D
:1028600061C84C3EA8AAAABEFEF72CF9FFF7F3FCFC
:10287000FFF720FB55485449002401605449C0E942
:1028800001144FF48041C0E9034144618461C46193
:102890000462FDF74DFE08B172B6FEE7FFF760FB7C
:1028A000FFF7CAFBFFF7FEFB4B484A4901604FF4B4
:1028B000E131C0E901140C21C460C0E90441846124
:1028C000C461FEF7F1FE08B172B6FEE73F48FFF7BC
:1028D0001CFAFFF721FCFFF7ABFC3F493F4890395A
:1028E000FDF703FD3C493D4848390830FDF7FDFC44
:1028F00039484830FFF78DFC344800215430FEF74A
:1029000085FE324804215430FEF780FE32483C21D7
:102910009038FEF779FD30483C214838FEF774FDC9
:10292000FDF700FE2C490446AC312848FFF72CFA8D
:102930002948AC30FFF7E5F9014627485C30FFF73E
:1029400045F92548AC30FFF7DEF9014622488430CE
:10295000FFF73CF9204FDFF88480AC37DFF8809038
:10296000A8F10C08FDF7DEFD0546001B00F090FC09
:10297000494600F097FB184906462C46AC311348EF
:10298000FFF702FA1448AC30FFF7BBF901461248D2
:1029900033465C30FA68FFF72DF94546C8F8040065
:1029A00000F042FC28800C48AC30FFF7ACF901463F
:1029B0000948334684303A69FFF71CF9A86000F0F3
:1029C00033FC6880CEE70000005400403000002057
:1029D000A0860100003801405C0100200C000020AE
:1029E00000007A4470B5054600F03CFD044620F036
:1029F0000040C0F1FF40C00F08D025F00040C0F1FA
:102A0000FF40C00F04BF0120FDF70DFC204670BD44
:102A100021F00042A2F16052B2F5801F01F00043A4
:102A200028BFD2F17F6C0BD95FEA001C43EAC202D7
:102A300042EB507018BF704728BF20F0010070476C
:102A4000B2F5801FBCBF184670474FEA410C1CF519
:102A5000001F02D2084600F0F6BC70B500F03AFA4A
:102A600000000089FFF7F6BF4FF00040A0F580009E
:102A7000704700002DE9C04130B4DFF8A0C23CEA45
:102A8000111418BF3CEA131400F0EC8081EA03052E
:102A90001CEA111444EAD57418BF1CEA131500F09F
:102AA000C780A4EB05044FF0004545EAC12145EA83
:102AB000C32341EA505143EA525304F17F749942CF
:102AC00004F500344FEAC0204FEAC22208BF90420A
:102AD00000F09C804FEA13650FF24016765D4FEAD6
:102AE000134506FB05F7C7F1807706FB07F74FEAAA
:102AF000D737A7FB03687642C8F58038A7FB06CE18
:102B000038BFA8F1010807FB08E64FF0000EA6FB4E
:102B1000028CE6FB03CEDCF1000CCEF1004E38BF98
:102B2000AEF1010EA6FB0C584FF000074FF0000568
:102B3000E6FB0E87A1FB08C6A0FB07CE16EB0E0630
:102B400045F10005E1FB076515F1E04E7EBFA4F5F8
:102B500080345FEA46066D4116F1800745F10005B5
:102B60004FEA17274FEA066647EA0567A6F1DE46F1
:102B7000B6F1805F4FEA15251FD9384624F0010CC5
:102B800005EBC471BCF1FE6F01EB0C1102D8F0BC77
:102B9000BDE8008124425CBF01F5801E9EEAC47F2F
:102BA00002D4F0BCBDE80081244238D4F0BCA1F1CD
:102BB000C041BDE8004100F0DBB94FEAD22242EA51
:102BC00043524FEAD323A7FB02864FEAD02040EAC4
:102BD000415007FB03661EEA0E0F4FEAD12105FBA9
:102BE000026658BFA6EB0056B6EB00564FEA520EEF
:102BF0004EEAC37E18EB0E0E56EB530EBDD518EB06
:102C000002085E417F1C55F10005B6E74FF48015C0
:102C10004FF000074FF000064FF00008ADE7F0BCA2
:102C20004FF0000001F1C04101F00041BDE800811A
:102C300011EA0C1F0CEA131500D00CE013EA0C1F6C
:102C400000F025804FF00000F0BC81EA030101F0A4
:102C50000041BDE80081F0BCBDE8004181EA03010C
:102C600000F086B9F0BCBDE8004170B500F032F963
:102C7000097EFC3E00F007B881EA03014FF0000036
:102C800001F00041704781EA030100F071B9F0BC26
:102C9000BDE800414FF0000021497047FFFDFBF9FE
:102CA000F7F5F4F2F0EEEDEBE9E8E6E4E3E1E0DE7F
:102CB000DDDBDAD8D7D5D4D3D1D0CFCDCCCBCAC8F1
:102CC000C7C6C5C4C2C1C0BFBEBDBCBBBAB9B8B718
:102CD000B6B5B4B3B2B1B0AFAEADACABAAA9A8A80B
:102CE000A7A6A5A4A3A3A2A1A09F9F9E9D9C9C9BD9
:102CF0009A99999897979695959493939291919084
:102D00008F8F8E8E8D8C8C8B8B8A89898888878714
:102D10008685858484838382828181800000FF0789
:102D20000000F87F4FEA1153A3F58063D3F11E032F
:102D3000A8BFD3F1200C08DB4FF0004242EAC122C9
:102D400052EA505232FA03F0704709420BD4102B6A
:102D5000C4BF0020704703F5787CBCF1FF3F05D06D
:102D60004FF0FF3070474FF00000704770B500F033
:102D7000B1F800BF4992248000207047F0E70000BE
:102D8000DFF848C170B51CEA111E1EBF1CEA1315FE
:102D90009EEA0C0F95EA0C0F00F06F8081EA0304A5
:102DA00023EA4C134EEAD47E21EA4C1141F48011FF
:102DB00043F48013AE44A1FB024CA0FB0365AEF1CB
:102DC0007F7E361955EB0C05A1FB034C4CF100033B
:102DD000A0FB021C16EB0C06654153F100030942EF
:102DE00018BF46F0010613F4007F0BD14FEA033100
:102DF0004FEA0530340341EA155140EA16506FF0AE
:102E000003020AE04FEAC3214FEAC520F40241EA77
:102E1000555140EA56506FF0020202EB2E4201EB90
:102E2000025585EACE710AD05FEA440C18BF24F03F
:102E3000004450F1000041F1000120EAD47040F25A
:102E4000FE7C624500D270BDA84214BF4FF08044A2
:102E50004FF04044002E08BF0024BEF1806FA8BF91
:102E6000A1F1C041BDE8704080F282804FF00000C7
:102E700001F1C04101F0004170479EEA0C0F0CEADD
:102E8000131518BF95EA0C0F06D04FF0000081EA29
:102E9000030E0EF0004170BD00F01CF88900013EE9
:102EA00000F007B800F009B84FEA430C5FEA5C5C39
:102EB00008D081EA030100F05BB84FEA410C5FEAF9
:102EC0005C5CF6D14FF00000014970470000FF073D
:102ED0000000F87F0EF1020E2EF0030E5EF8046B78
:102EE000364205D4012A43EB030515F5001F12D81D
:102EF000012841EB010C1CF5001F0CD80ED14FEA44
:102F0000D17C15F5001F0CEB4C0C0CF1020C08BF2A
:102F10004CEBD37C04E04FF0080C01E04FEAD37C8B
:102F20000CEB4C0526FA05F606F00706B6F1040C84
:102F300006D20EEB860CBDE870404CF0010C6047E9
:102F4000DFE80CF0090B02024FF000414FF00000E7
:102F5000A1F5002170BD19461046012851EB01046E
:102F600018BFD4F5001484BF002001F0004170BDEB
:102F70000808A0F500114FEA3101704743004FEAFD
:102F8000D30C4FEA3C0C43401FBF40070CF160518B
:102F900013F0FE4F70471CF0006F03D100200CF0BF
:102FA000004170470CF0004343EA507010B540EA0E
:102FB000CC0000F002FA00BF000000924FEA0001CE
:102FC000FFF7D6BF4FF000414FF00000A1F5002100
:102FD0007047000090EA010F48BF81F0004100F106
:102FE000D082421A3CBF801A89184FEAD0524FF063
:102FF0007F4C1CEA410FA2EBD15318BF9CEA026F31
:1030000000F03B804FF0004C4CEA00204CEA0121DC
:1030100021FA03FC10EB0C0C1ED202F1FF325FEA26
:103020001C2040EBC25038BF70471CF07F0F4FEAA6
:10303000400C18BFBCF17F4F38BF7047C3F120036D
:10304000994008BF20F00100BCF17F4F38BF7047A6
:10305000A0F1C04000F0F7B94FEA3C00000A40EB95
:10306000C25028BF1CF0FF0F4FEA400CE6D018BF3B
:10307000BCF17F4F38BF7047EAE79CEA026F05D08A
:1030800010EA5C0F08BF00F00040704710B500F078
:1030900094F900BF64FBBE3E014800F0E0BA00BFF7
:1030A0000000C07F4FF47F0C1CEAD0121EBF1CEA48
:1030B000D11392EA0C0F93EA0C0F00F0858090EA8E
:1030C000010F48BF42F4807240F4000C41F400004C
:1030D0002CF07F4120F07F4000B58142A2EB03023B
:1030E0000FF2081CACEB504EC0F100009EF800E05F
:1030F0004FEA4E0E00FB0EFC38BF49004FEA2C1C75
:1031000002F5FA020CFB0EF34FEACE1E4FEA112C29
:103110004FEAC1210EEB635E42EB22420EFB0CFC38
:103120004FEA1C5300FB03114FEA112C4FEA013107
:103130000EFB0CFC4FEADC4C00FB0C11C14228BF1B
:1031400009184CEB03335DF804EB10EB410143EB42
:10315000C250B2F57C0F38BF704729D512F0F00F7E
:103160001CBF00F1C04000F0004070470081828326
:103170008485868788898B8C8D8E8F919293959686
:1031800097999A9C9D9FA0A2A3A5A7A8AAACAEB010
:10319000B2B3B5B7B9BCBEC0C2C5C7C9CCCED1D415
:1031A000D7D9DCDFE2E6E9ECF0F3F7FAFE00000045
:1031B0004FEA400C0CF1807CBCF17E4F28BF704779
:1031C000B0F1C04000F03FB990EA010F0CEAD11312
:1031D00048BF42F48072624538BF634507D213F49A
:1031E0007F0F16D080EA010000F00040704710B554
:1031F00000F0E3F8097EFC3E00F005B880EA01002B
:1032000000F00040704780EA010000F0004000F04C
:103210001AB912F47F0F04BF0248704780EA010018
:1032200000F011B90000C07F41000B0ED3F19E02E7
:1032300008D950F400034FEA032323FA02F048BFF1
:103240004042704710B500F0B8F800BF49922480A2
:10325000002070476FF0004282EA200070470000B3
:1032600010F0004148BF4042B0FA80F310FA03F278
:10327000C3F19D030BD051EAC35101EB1220530659
:1032800038BF704700F1010008BF20F0010070470F
:10329000B0FA80F310FA03F2C3F19D030AD0D90506
:1032A00001EB1220530638BF704700F1010008BF40
:1032B00020F00100704700004FF47F0C1CEAD01290
:1032C0001EBF1CEAD11392EA0C0F93EA0C0F00F018
:1032D000478090EA010F48BF42F480724FF0004CE3
:1032E0004CEA00204CEA012102EB0302A0FB01138F
:1032F000A2F50002002918BF43F001035B0028BFBC
:103300004FEA330342EB22425FEA132C4CEBC250EC
:103310002EBFBCEB436FB2F57C0F70474FEA036CD6
:10332000BCF1004F08BF20F00100B2F57C0F38BFA0
:1033300070470BD582F0FF0212F5803FC8BF70477F
:1033400000F1C040D8BF00F00040704700F5000C0D
:103350005FEA4C0C48BF7047B0F1C04000F073B852
:1033600090EA010F0CEAD11348BF42F48072624523
:1033700038BF634504D280EA010000F00040704786
:1033800010B500F01AF800BF8900013E00F007B840
:1033900000F009B85FEA410C5FEA1C6C08D080EAD3
:1033A000010000F050B85FEA400C5FEA1C6CF6D1F7
:1033B0004FF00040A0F5800070470EF1020E2EF095
:1033C000030E5EF8044B244204D44FEA4102B2F1EA
:1033D0007F4F11D84FEA4003B3F17F4F0CD80ED185
:1033E0004FEAD07CB2F17F4F0CEB4C0C0CF1020C8D
:1033F00008BF4CEBD17C04E04FF0080C01E04FEA31
:10340000D17C0CEB4C0324FA03F404F00704B4F170
:10341000040C06D20EEB840CBDE810404CF0010CFD
:103420006047DFE80CF0070802024FF00040A0F50B
:10343000800010BD0846420018BFD2F1807288BFDC
:1034400000F0004010BDFF2141EAD050C005704798
:1034500080F0004090EA010F7FF5C3AD81F000419C
:1034600000F08FB84FEAD051002988BFD1F1FF0298
:1034700040F2758001F17D014FEA002070B54908E6
:1034800040F0004038BF40080EA2430E040CD25C4E
:1034900002FB02F304FB03F3C3F14043A3FB02541A
:1034A000ED0D45EA442202FB02F3A0FB03546D42FA
:1034B000C4F1404438BF641EA2FB05350023E2FB83
:1034C0000453EA0B42EA4342A0FB023212F14004E9
:1034D000A2F12103E40903F07F031F2B32D904EB8F
:1034E000C15070BDFEFAF7F3F0ECE9E6E4E1DEDC92
:1034F000D9D7D4D2D0CECCCAC8C6C4C2C1BFBDBC35
:10350000BAB9B7B6B4B3B2B0AFAEACABAAA9A8A7BC
:10351000A6A4A3A2A1A09F9E9E9D9C9B9A999897CA
:10352000979695949393929190908F8E8E8D8C8C8C
:103530008B8A8A8989888787868685848483838223
:103540008281818004FB04F6B6EB004603D5E64297
:1035500048BF641CC3E7A64258BF641CBFE711F014
:10356000FF0F02D100F00040704710B5FFF725FFB4
:103570007FDBFFBE90EA010F48BF81F000413FF5BD
:1035800030AD421A04D882F00042A0EB0200114490
:103590004FEAD0524FF07F4C1CEA410FA2EBD153BF
:1035A00018BF9CEA026F4AD04FF0004C4CEA002052
:1035B0004CEA012121FA03FCB0EB0C0C0FD412F001
:1035C000FE0F36D05FEA4C001DD5001240EBC25012
:1035D00038BF70471CF03F0F18BF70470BE0A2F1D7
:1035E00001025FEA1C2040EBC25038BF70471CF05C
:1035F0007F0F18BF7047C3F12003994014BF401ECE
:1036000020F00100704780084FEA122308BF70477E
:10361000B0FA80FCA2EB0C02CCF1280C60FA0CF0A2
:1036200093EA122F04BF00EBC25070474FEAC370F9
:103630007047130A5FEADC1008BF7047F6E79CEAA0
:10364000026F04D010EA5C0F08BF0020704710B56D
:10365000FFF7B3FE40DFF63E81F0004070470CF00C
:103660000F03092B08BF082000F051800A2B0BD054
:10367000082B18BF704708BF1CF0400F0AD04FF04E
:1036800000004FF0000170471CF0400F18BF4FF0D2
:10369000004070471CF0100F08D020F0704300F07D
:1036A0007F4242EAD3014FEA4370704700F0604026
:1036B00021F07F4242EA000201F07F4040EA72704E
:1036C00070474FF0FF0212EAD0521CBF92F0FF0386
:1036D0008B42C2BFD14200EBC1507047002A0AD0D2
:1036E000002B0BD0002900F00040A4BF40F0FE40AA
:1036F00040F40000704700F00040704743024FF074
:103700000B0C18BF4CF0806C7FF4C6AC70471CF4F7
:10371000801F11D01CF4E02F03D06FEACC31490098
:1037200070474FF04050EFF3008222F0704242EABF
:10373000000282F3008870474FF0000070470102DA
:1037400002030405060708090A0B0C0D0E0F1010E2
:103750000000000000000000010203040607080941
:103760000000000001020304883700080000002068
:103770003000000028010008B837000830000020A1
:10378000580800004401000800000000000000008C
:103790000000000000000000000000000000000029
:1037A0000000000001000000100000000000000008
:0837B00000127A000100000084
:04000005080000ED02
:00000001FF
